{
  "contractName": "LandReg",
  "abi": [
    {
      "inputs": [
        {
          "internalType": "uint256",
          "name": "landid",
          "type": "uint256"
        },
        {
          "internalType": "string",
          "name": "ownername",
          "type": "string"
        },
        {
          "internalType": "string",
          "name": "landtype",
          "type": "string"
        },
        {
          "internalType": "string",
          "name": "geolocation",
          "type": "string"
        },
        {
          "internalType": "string",
          "name": "amount",
          "type": "string"
        },
        {
          "internalType": "string",
          "name": "regdate",
          "type": "string"
        },
        {
          "internalType": "uint256",
          "name": "pincode",
          "type": "uint256"
        },
        {
          "internalType": "uint256",
          "name": "kycno",
          "type": "uint256"
        },
        {
          "internalType": "string",
          "name": "contact",
          "type": "string"
        },
        {
          "internalType": "uint256",
          "name": "surveyno",
          "type": "uint256"
        }
      ],
      "name": "addLand",
      "outputs": [],
      "stateMutability": "nonpayable",
      "type": "function"
    },
    {
      "inputs": [
        {
          "internalType": "uint256",
          "name": "pincode",
          "type": "uint256"
        }
      ],
      "name": "getPincodelandids",
      "outputs": [
        {
          "internalType": "string",
          "name": "",
          "type": "string"
        }
      ],
      "stateMutability": "view",
      "type": "function",
      "constant": true
    },
    {
      "inputs": [
        {
          "internalType": "uint256",
          "name": "surveyno",
          "type": "uint256"
        }
      ],
      "name": "getSurveylandids",
      "outputs": [
        {
          "internalType": "string",
          "name": "",
          "type": "string"
        }
      ],
      "stateMutability": "view",
      "type": "function",
      "constant": true
    },
    {
      "inputs": [
        {
          "internalType": "uint256",
          "name": "kycno",
          "type": "uint256"
        }
      ],
      "name": "getKyclandids",
      "outputs": [
        {
          "internalType": "string",
          "name": "",
          "type": "string"
        }
      ],
      "stateMutability": "view",
      "type": "function",
      "constant": true
    },
    {
      "inputs": [
        {
          "internalType": "uint256",
          "name": "landid",
          "type": "uint256"
        }
      ],
      "name": "getOwner",
      "outputs": [
        {
          "internalType": "string",
          "name": "",
          "type": "string"
        }
      ],
      "stateMutability": "view",
      "type": "function",
      "constant": true
    },
    {
      "inputs": [
        {
          "internalType": "uint256",
          "name": "landid",
          "type": "uint256"
        }
      ],
      "name": "getPincode",
      "outputs": [
        {
          "internalType": "string",
          "name": "",
          "type": "string"
        }
      ],
      "stateMutability": "view",
      "type": "function",
      "constant": true
    },
    {
      "inputs": [
        {
          "internalType": "uint256",
          "name": "landid",
          "type": "uint256"
        }
      ],
      "name": "getKyc",
      "outputs": [
        {
          "internalType": "string",
          "name": "",
          "type": "string"
        }
      ],
      "stateMutability": "view",
      "type": "function",
      "constant": true
    },
    {
      "inputs": [
        {
          "internalType": "uint256",
          "name": "landid",
          "type": "uint256"
        }
      ],
      "name": "getSurveyno",
      "outputs": [
        {
          "internalType": "string",
          "name": "",
          "type": "string"
        }
      ],
      "stateMutability": "view",
      "type": "function",
      "constant": true
    },
    {
      "inputs": [
        {
          "internalType": "uint256",
          "name": "landid",
          "type": "uint256"
        }
      ],
      "name": "getLandtype",
      "outputs": [
        {
          "internalType": "string",
          "name": "",
          "type": "string"
        }
      ],
      "stateMutability": "view",
      "type": "function",
      "constant": true
    },
    {
      "inputs": [
        {
          "internalType": "uint256",
          "name": "landid",
          "type": "uint256"
        }
      ],
      "name": "getGeolocation",
      "outputs": [
        {
          "internalType": "string",
          "name": "",
          "type": "string"
        }
      ],
      "stateMutability": "view",
      "type": "function",
      "constant": true
    },
    {
      "inputs": [
        {
          "internalType": "uint256",
          "name": "landid",
          "type": "uint256"
        }
      ],
      "name": "getAmount",
      "outputs": [
        {
          "internalType": "string",
          "name": "",
          "type": "string"
        }
      ],
      "stateMutability": "view",
      "type": "function",
      "constant": true
    },
    {
      "inputs": [
        {
          "internalType": "uint256",
          "name": "landid",
          "type": "uint256"
        }
      ],
      "name": "getRegdate",
      "outputs": [
        {
          "internalType": "string",
          "name": "",
          "type": "string"
        }
      ],
      "stateMutability": "view",
      "type": "function",
      "constant": true
    },
    {
      "inputs": [
        {
          "internalType": "uint256",
          "name": "landid",
          "type": "uint256"
        }
      ],
      "name": "getContact",
      "outputs": [
        {
          "internalType": "string",
          "name": "",
          "type": "string"
        }
      ],
      "stateMutability": "view",
      "type": "function",
      "constant": true
    },
    {
      "inputs": [
        {
          "internalType": "uint256",
          "name": "landid",
          "type": "uint256"
        }
      ],
      "name": "TrackLand",
      "outputs": [
        {
          "internalType": "string",
          "name": "",
          "type": "string"
        }
      ],
      "stateMutability": "view",
      "type": "function",
      "constant": true
    }
  ],
  "bytecode": "0x608060405234801561001057600080fd5b5061453a806100206000396000f3fe608060405234801561001057600080fd5b50600436106100ea5760003560e01c8063c41a360a1161008c578063e251c32d11610066578063e251c32d146102cf578063e6505e1e146102ff578063fdde6e4a1461032f578063fe55894f1461035f576100ea565b8063c41a360a1461023f578063c65f48c51461026f578063ccfc13e21461029f576100ea565b8063567d0324116100c8578063567d03241461017f578063773b63d5146101af5780637cafd547146101df5780639980ec861461020f576100ea565b80630aeb0712146100ef578063201cc2481461011f578063249fd2e11461014f575b600080fd5b61010960048036038101906101049190613bfe565b61037b565b6040516101169190613cbb565b60405180910390f35b61013960048036038101906101349190613bfe565b610791565b6040516101469190613cbb565b60405180910390f35b61016960048036038101906101649190613bfe565b610b9f565b6040516101769190613cbb565b60405180910390f35b61019960048036038101906101949190613bfe565b610fad565b6040516101a69190613cbb565b60405180910390f35b6101c960048036038101906101c49190613bfe565b6113bb565b6040516101d69190613cbb565b60405180910390f35b6101f960048036038101906101f49190613bfe565b611814565b6040516102069190613cbb565b60405180910390f35b61022960048036038101906102249190613bfe565b611c51565b6040516102369190613cbb565b60405180910390f35b61025960048036038101906102549190613bfe565b61205f565b6040516102669190613cbb565b60405180910390f35b61028960048036038101906102849190613bfe565b61246d565b6040516102969190613cbb565b60405180910390f35b6102b960048036038101906102b49190613bfe565b612883565b6040516102c69190613cbb565b60405180910390f35b6102e960048036038101906102e49190613bfe565b612cbf565b6040516102f69190613cbb565b60405180910390f35b61031960048036038101906103149190613bfe565b6130d6565b6040516103269190613cbb565b60405180910390f35b61034960048036038101906103449190613bfe565b6134e5565b6040516103569190613cbb565b60405180910390f35b61037960048036038101906103749190613e12565b613921565b005b606060006060600091505b6000805490508210156107875760008083815481106103a8576103a7613f99565b5b90600052602060002090600a020160405180610140016040529081600082015481526020016001820180546103dc90613ff7565b80601f016020809104026020016040519081016040528092919081815260200182805461040890613ff7565b80156104555780601f1061042a57610100808354040283529160200191610455565b820191906000526020600020905b81548152906001019060200180831161043857829003601f168201915b5050505050815260200160028201805461046e90613ff7565b80601f016020809104026020016040519081016040528092919081815260200182805461049a90613ff7565b80156104e75780601f106104bc576101008083540402835291602001916104e7565b820191906000526020600020905b8154815290600101906020018083116104ca57829003601f168201915b5050505050815260200160038201805461050090613ff7565b80601f016020809104026020016040519081016040528092919081815260200182805461052c90613ff7565b80156105795780601f1061054e57610100808354040283529160200191610579565b820191906000526020600020905b81548152906001019060200180831161055c57829003601f168201915b5050505050815260200160048201805461059290613ff7565b80601f01602080910402602001604051908101604052809291908181526020018280546105be90613ff7565b801561060b5780601f106105e05761010080835404028352916020019161060b565b820191906000526020600020905b8154815290600101906020018083116105ee57829003601f168201915b5050505050815260200160058201805461062490613ff7565b80601f016020809104026020016040519081016040528092919081815260200182805461065090613ff7565b801561069d5780601f106106725761010080835404028352916020019161069d565b820191906000526020600020905b81548152906001019060200180831161068057829003601f168201915b5050505050815260200160068201548152602001600782015481526020016008820180546106ca90613ff7565b80601f01602080910402602001604051908101604052809291908181526020018280546106f690613ff7565b80156107435780601f1061071857610100808354040283529160200191610743565b820191906000526020600020905b81548152906001019060200180831161072657829003601f168201915b50505050508152602001600982015481525050905084816000015103610773576107708160e00151613a54565b91505b50818061077f90614057565b925050610386565b8092505050919050565b606060006060600091505b600080549050821015610b955760008083815481106107be576107bd613f99565b5b90600052602060002090600a020160405180610140016040529081600082015481526020016001820180546107f290613ff7565b80601f016020809104026020016040519081016040528092919081815260200182805461081e90613ff7565b801561086b5780601f106108405761010080835404028352916020019161086b565b820191906000526020600020905b81548152906001019060200180831161084e57829003601f168201915b5050505050815260200160028201805461088490613ff7565b80601f01602080910402602001604051908101604052809291908181526020018280546108b090613ff7565b80156108fd5780601f106108d2576101008083540402835291602001916108fd565b820191906000526020600020905b8154815290600101906020018083116108e057829003601f168201915b5050505050815260200160038201805461091690613ff7565b80601f016020809104026020016040519081016040528092919081815260200182805461094290613ff7565b801561098f5780601f106109645761010080835404028352916020019161098f565b820191906000526020600020905b81548152906001019060200180831161097257829003601f168201915b505050505081526020016004820180546109a890613ff7565b80601f01602080910402602001604051908101604052809291908181526020018280546109d490613ff7565b8015610a215780601f106109f657610100808354040283529160200191610a21565b820191906000526020600020905b815481529060010190602001808311610a0457829003601f168201915b50505050508152602001600582018054610a3a90613ff7565b80601f0160208091040260200160405190810160405280929190818152602001828054610a6690613ff7565b8015610ab35780601f10610a8857610100808354040283529160200191610ab3565b820191906000526020600020905b815481529060010190602001808311610a9657829003601f168201915b505050505081526020016006820154815260200160078201548152602001600882018054610ae090613ff7565b80601f0160208091040260200160405190810160405280929190818152602001828054610b0c90613ff7565b8015610b595780601f10610b2e57610100808354040283529160200191610b59565b820191906000526020600020905b815481529060010190602001808311610b3c57829003601f168201915b50505050508152602001600982015481525050905084816000015103610b8157806040015191505b508180610b8d90614057565b92505061079c565b8092505050919050565b606060006060600091505b600080549050821015610fa3576000808381548110610bcc57610bcb613f99565b5b90600052602060002090600a02016040518061014001604052908160008201548152602001600182018054610c0090613ff7565b80601f0160208091040260200160405190810160405280929190818152602001828054610c2c90613ff7565b8015610c795780601f10610c4e57610100808354040283529160200191610c79565b820191906000526020600020905b815481529060010190602001808311610c5c57829003601f168201915b50505050508152602001600282018054610c9290613ff7565b80601f0160208091040260200160405190810160405280929190818152602001828054610cbe90613ff7565b8015610d0b5780601f10610ce057610100808354040283529160200191610d0b565b820191906000526020600020905b815481529060010190602001808311610cee57829003601f168201915b50505050508152602001600382018054610d2490613ff7565b80601f0160208091040260200160405190810160405280929190818152602001828054610d5090613ff7565b8015610d9d5780601f10610d7257610100808354040283529160200191610d9d565b820191906000526020600020905b815481529060010190602001808311610d8057829003601f168201915b50505050508152602001600482018054610db690613ff7565b80601f0160208091040260200160405190810160405280929190818152602001828054610de290613ff7565b8015610e2f5780601f10610e0457610100808354040283529160200191610e2f565b820191906000526020600020905b815481529060010190602001808311610e1257829003601f168201915b50505050508152602001600582018054610e4890613ff7565b80601f0160208091040260200160405190810160405280929190818152602001828054610e7490613ff7565b8015610ec15780601f10610e9657610100808354040283529160200191610ec1565b820191906000526020600020905b815481529060010190602001808311610ea457829003601f168201915b505050505081526020016006820154815260200160078201548152602001600882018054610eee90613ff7565b80601f0160208091040260200160405190810160405280929190818152602001828054610f1a90613ff7565b8015610f675780601f10610f3c57610100808354040283529160200191610f67565b820191906000526020600020905b815481529060010190602001808311610f4a57829003601f168201915b50505050508152602001600982015481525050905084816000015103610f8f57806060015191505b508180610f9b90614057565b925050610baa565b8092505050919050565b606060006060600091505b6000805490508210156113b1576000808381548110610fda57610fd9613f99565b5b90600052602060002090600a0201604051806101400160405290816000820154815260200160018201805461100e90613ff7565b80601f016020809104026020016040519081016040528092919081815260200182805461103a90613ff7565b80156110875780601f1061105c57610100808354040283529160200191611087565b820191906000526020600020905b81548152906001019060200180831161106a57829003601f168201915b505050505081526020016002820180546110a090613ff7565b80601f01602080910402602001604051908101604052809291908181526020018280546110cc90613ff7565b80156111195780601f106110ee57610100808354040283529160200191611119565b820191906000526020600020905b8154815290600101906020018083116110fc57829003601f168201915b5050505050815260200160038201805461113290613ff7565b80601f016020809104026020016040519081016040528092919081815260200182805461115e90613ff7565b80156111ab5780601f10611180576101008083540402835291602001916111ab565b820191906000526020600020905b81548152906001019060200180831161118e57829003601f168201915b505050505081526020016004820180546111c490613ff7565b80601f01602080910402602001604051908101604052809291908181526020018280546111f090613ff7565b801561123d5780601f106112125761010080835404028352916020019161123d565b820191906000526020600020905b81548152906001019060200180831161122057829003601f168201915b5050505050815260200160058201805461125690613ff7565b80601f016020809104026020016040519081016040528092919081815260200182805461128290613ff7565b80156112cf5780601f106112a4576101008083540402835291602001916112cf565b820191906000526020600020905b8154815290600101906020018083116112b257829003601f168201915b5050505050815260200160068201548152602001600782015481526020016008820180546112fc90613ff7565b80601f016020809104026020016040519081016040528092919081815260200182805461132890613ff7565b80156113755780601f1061134a57610100808354040283529160200191611375565b820191906000526020600020905b81548152906001019060200180831161135857829003601f168201915b5050505050815260200160098201548152505090508481600001510361139d578060a0015191505b5081806113a990614057565b925050610fb8565b8092505050919050565b60606000606080600092505b6000805490508310156118095760008084815481106113e9576113e8613f99565b5b90600052602060002090600a0201604051806101400160405290816000820154815260200160018201805461141d90613ff7565b80601f016020809104026020016040519081016040528092919081815260200182805461144990613ff7565b80156114965780601f1061146b57610100808354040283529160200191611496565b820191906000526020600020905b81548152906001019060200180831161147957829003601f168201915b505050505081526020016002820180546114af90613ff7565b80601f01602080910402602001604051908101604052809291908181526020018280546114db90613ff7565b80156115285780601f106114fd57610100808354040283529160200191611528565b820191906000526020600020905b81548152906001019060200180831161150b57829003601f168201915b5050505050815260200160038201805461154190613ff7565b80601f016020809104026020016040519081016040528092919081815260200182805461156d90613ff7565b80156115ba5780601f1061158f576101008083540402835291602001916115ba565b820191906000526020600020905b81548152906001019060200180831161159d57829003601f168201915b505050505081526020016004820180546115d390613ff7565b80601f01602080910402602001604051908101604052809291908181526020018280546115ff90613ff7565b801561164c5780601f106116215761010080835404028352916020019161164c565b820191906000526020600020905b81548152906001019060200180831161162f57829003601f168201915b5050505050815260200160058201805461166590613ff7565b80601f016020809104026020016040519081016040528092919081815260200182805461169190613ff7565b80156116de5780601f106116b3576101008083540402835291602001916116de565b820191906000526020600020905b8154815290600101906020018083116116c157829003601f168201915b50505050508152602001600682015481526020016007820154815260200160088201805461170b90613ff7565b80601f016020809104026020016040519081016040528092919081815260200182805461173790613ff7565b80156117845780601f1061175957610100808354040283529160200191611784565b820191906000526020600020905b81548152906001019060200180831161176757829003601f168201915b505050505081526020016009820154815250509050858160000151036117f55780602001518160a001516040516020016117bf929190614101565b604051602081830303815290604052915082826040516020016117e392919061415a565b60405160208183030381529060405292505b50828061180190614057565b9350506113c7565b819350505050919050565b60606000606080600092505b600080549050831015611c4657600080848154811061184257611841613f99565b5b90600052602060002090600a0201604051806101400160405290816000820154815260200160018201805461187690613ff7565b80601f01602080910402602001604051908101604052809291908181526020018280546118a290613ff7565b80156118ef5780601f106118c4576101008083540402835291602001916118ef565b820191906000526020600020905b8154815290600101906020018083116118d257829003601f168201915b5050505050815260200160028201805461190890613ff7565b80601f016020809104026020016040519081016040528092919081815260200182805461193490613ff7565b80156119815780601f1061195657610100808354040283529160200191611981565b820191906000526020600020905b81548152906001019060200180831161196457829003601f168201915b5050505050815260200160038201805461199a90613ff7565b80601f01602080910402602001604051908101604052809291908181526020018280546119c690613ff7565b8015611a135780601f106119e857610100808354040283529160200191611a13565b820191906000526020600020905b8154815290600101906020018083116119f657829003601f168201915b50505050508152602001600482018054611a2c90613ff7565b80601f0160208091040260200160405190810160405280929190818152602001828054611a5890613ff7565b8015611aa55780601f10611a7a57610100808354040283529160200191611aa5565b820191906000526020600020905b815481529060010190602001808311611a8857829003601f168201915b50505050508152602001600582018054611abe90613ff7565b80601f0160208091040260200160405190810160405280929190818152602001828054611aea90613ff7565b8015611b375780601f10611b0c57610100808354040283529160200191611b37565b820191906000526020600020905b815481529060010190602001808311611b1a57829003601f168201915b505050505081526020016006820154815260200160078201548152602001600882018054611b6490613ff7565b80601f0160208091040260200160405190810160405280929190818152602001828054611b9090613ff7565b8015611bdd5780601f10611bb257610100808354040283529160200191611bdd565b820191906000526020600020905b815481529060010190602001808311611bc057829003601f168201915b5050505050815260200160098201548152505090508581610120015103611c3257611c0b8160000151613a54565b92508183604051602001611c2092919061415a565b60405160208183030381529060405291505b508280611c3e90614057565b935050611820565b809350505050919050565b606060006060600091505b600080549050821015612055576000808381548110611c7e57611c7d613f99565b5b90600052602060002090600a02016040518061014001604052908160008201548152602001600182018054611cb290613ff7565b80601f0160208091040260200160405190810160405280929190818152602001828054611cde90613ff7565b8015611d2b5780601f10611d0057610100808354040283529160200191611d2b565b820191906000526020600020905b815481529060010190602001808311611d0e57829003601f168201915b50505050508152602001600282018054611d4490613ff7565b80601f0160208091040260200160405190810160405280929190818152602001828054611d7090613ff7565b8015611dbd5780601f10611d9257610100808354040283529160200191611dbd565b820191906000526020600020905b815481529060010190602001808311611da057829003601f168201915b50505050508152602001600382018054611dd690613ff7565b80601f0160208091040260200160405190810160405280929190818152602001828054611e0290613ff7565b8015611e4f5780601f10611e2457610100808354040283529160200191611e4f565b820191906000526020600020905b815481529060010190602001808311611e3257829003601f168201915b50505050508152602001600482018054611e6890613ff7565b80601f0160208091040260200160405190810160405280929190818152602001828054611e9490613ff7565b8015611ee15780601f10611eb657610100808354040283529160200191611ee1565b820191906000526020600020905b815481529060010190602001808311611ec457829003601f168201915b50505050508152602001600582018054611efa90613ff7565b80601f0160208091040260200160405190810160405280929190818152602001828054611f2690613ff7565b8015611f735780601f10611f4857610100808354040283529160200191611f73565b820191906000526020600020905b815481529060010190602001808311611f5657829003601f168201915b505050505081526020016006820154815260200160078201548152602001600882018054611fa090613ff7565b80601f0160208091040260200160405190810160405280929190818152602001828054611fcc90613ff7565b80156120195780601f10611fee57610100808354040283529160200191612019565b820191906000526020600020905b815481529060010190602001808311611ffc57829003601f168201915b5050505050815260200160098201548152505090508481600001510361204157806080015191505b50818061204d90614057565b925050611c5c565b8092505050919050565b606060006060600091505b60008054905082101561246357600080838154811061208c5761208b613f99565b5b90600052602060002090600a020160405180610140016040529081600082015481526020016001820180546120c090613ff7565b80601f01602080910402602001604051908101604052809291908181526020018280546120ec90613ff7565b80156121395780601f1061210e57610100808354040283529160200191612139565b820191906000526020600020905b81548152906001019060200180831161211c57829003601f168201915b5050505050815260200160028201805461215290613ff7565b80601f016020809104026020016040519081016040528092919081815260200182805461217e90613ff7565b80156121cb5780601f106121a0576101008083540402835291602001916121cb565b820191906000526020600020905b8154815290600101906020018083116121ae57829003601f168201915b505050505081526020016003820180546121e490613ff7565b80601f016020809104026020016040519081016040528092919081815260200182805461221090613ff7565b801561225d5780601f106122325761010080835404028352916020019161225d565b820191906000526020600020905b81548152906001019060200180831161224057829003601f168201915b5050505050815260200160048201805461227690613ff7565b80601f01602080910402602001604051908101604052809291908181526020018280546122a290613ff7565b80156122ef5780601f106122c4576101008083540402835291602001916122ef565b820191906000526020600020905b8154815290600101906020018083116122d257829003601f168201915b5050505050815260200160058201805461230890613ff7565b80601f016020809104026020016040519081016040528092919081815260200182805461233490613ff7565b80156123815780601f1061235657610100808354040283529160200191612381565b820191906000526020600020905b81548152906001019060200180831161236457829003601f168201915b5050505050815260200160068201548152602001600782015481526020016008820180546123ae90613ff7565b80601f01602080910402602001604051908101604052809291908181526020018280546123da90613ff7565b80156124275780601f106123fc57610100808354040283529160200191612427565b820191906000526020600020905b81548152906001019060200180831161240a57829003601f168201915b5050505050815260200160098201548152505090508481600001510361244f57806020015191505b50818061245b90614057565b92505061206a565b8092505050919050565b606060006060600091505b60008054905082101561287957600080838154811061249a57612499613f99565b5b90600052602060002090600a020160405180610140016040529081600082015481526020016001820180546124ce90613ff7565b80601f01602080910402602001604051908101604052809291908181526020018280546124fa90613ff7565b80156125475780601f1061251c57610100808354040283529160200191612547565b820191906000526020600020905b81548152906001019060200180831161252a57829003601f168201915b5050505050815260200160028201805461256090613ff7565b80601f016020809104026020016040519081016040528092919081815260200182805461258c90613ff7565b80156125d95780601f106125ae576101008083540402835291602001916125d9565b820191906000526020600020905b8154815290600101906020018083116125bc57829003601f168201915b505050505081526020016003820180546125f290613ff7565b80601f016020809104026020016040519081016040528092919081815260200182805461261e90613ff7565b801561266b5780601f106126405761010080835404028352916020019161266b565b820191906000526020600020905b81548152906001019060200180831161264e57829003601f168201915b5050505050815260200160048201805461268490613ff7565b80601f01602080910402602001604051908101604052809291908181526020018280546126b090613ff7565b80156126fd5780601f106126d2576101008083540402835291602001916126fd565b820191906000526020600020905b8154815290600101906020018083116126e057829003601f168201915b5050505050815260200160058201805461271690613ff7565b80601f016020809104026020016040519081016040528092919081815260200182805461274290613ff7565b801561278f5780601f106127645761010080835404028352916020019161278f565b820191906000526020600020905b81548152906001019060200180831161277257829003601f168201915b5050505050815260200160068201548152602001600782015481526020016008820180546127bc90613ff7565b80601f01602080910402602001604051908101604052809291908181526020018280546127e890613ff7565b80156128355780601f1061280a57610100808354040283529160200191612835565b820191906000526020600020905b81548152906001019060200180831161281857829003601f168201915b50505050508152602001600982015481525050905084816000015103612865576128628160c00151613a54565b91505b50818061287190614057565b925050612478565b8092505050919050565b60606000606080600092505b600080549050831015612cb45760008084815481106128b1576128b0613f99565b5b90600052602060002090600a020160405180610140016040529081600082015481526020016001820180546128e590613ff7565b80601f016020809104026020016040519081016040528092919081815260200182805461291190613ff7565b801561295e5780601f106129335761010080835404028352916020019161295e565b820191906000526020600020905b81548152906001019060200180831161294157829003601f168201915b5050505050815260200160028201805461297790613ff7565b80601f01602080910402602001604051908101604052809291908181526020018280546129a390613ff7565b80156129f05780601f106129c5576101008083540402835291602001916129f0565b820191906000526020600020905b8154815290600101906020018083116129d357829003601f168201915b50505050508152602001600382018054612a0990613ff7565b80601f0160208091040260200160405190810160405280929190818152602001828054612a3590613ff7565b8015612a825780601f10612a5757610100808354040283529160200191612a82565b820191906000526020600020905b815481529060010190602001808311612a6557829003601f168201915b50505050508152602001600482018054612a9b90613ff7565b80601f0160208091040260200160405190810160405280929190818152602001828054612ac790613ff7565b8015612b145780601f10612ae957610100808354040283529160200191612b14565b820191906000526020600020905b815481529060010190602001808311612af757829003601f168201915b50505050508152602001600582018054612b2d90613ff7565b80601f0160208091040260200160405190810160405280929190818152602001828054612b5990613ff7565b8015612ba65780601f10612b7b57610100808354040283529160200191612ba6565b820191906000526020600020905b815481529060010190602001808311612b8957829003601f168201915b505050505081526020016006820154815260200160078201548152602001600882018054612bd390613ff7565b80601f0160208091040260200160405190810160405280929190818152602001828054612bff90613ff7565b8015612c4c5780601f10612c2157610100808354040283529160200191612c4c565b820191906000526020600020905b815481529060010190602001808311612c2f57829003601f168201915b505050505081526020016009820154815250509050858160e0015103612ca057612c798160000151613a54565b92508183604051602001612c8e92919061415a565b60405160208183030381529060405291505b508280612cac90614057565b93505061288f565b809350505050919050565b606060006060600091505b6000805490508210156130cc576000808381548110612cec57612ceb613f99565b5b90600052602060002090600a02016040518061014001604052908160008201548152602001600182018054612d2090613ff7565b80601f0160208091040260200160405190810160405280929190818152602001828054612d4c90613ff7565b8015612d995780601f10612d6e57610100808354040283529160200191612d99565b820191906000526020600020905b815481529060010190602001808311612d7c57829003601f168201915b50505050508152602001600282018054612db290613ff7565b80601f0160208091040260200160405190810160405280929190818152602001828054612dde90613ff7565b8015612e2b5780601f10612e0057610100808354040283529160200191612e2b565b820191906000526020600020905b815481529060010190602001808311612e0e57829003601f168201915b50505050508152602001600382018054612e4490613ff7565b80601f0160208091040260200160405190810160405280929190818152602001828054612e7090613ff7565b8015612ebd5780601f10612e9257610100808354040283529160200191612ebd565b820191906000526020600020905b815481529060010190602001808311612ea057829003601f168201915b50505050508152602001600482018054612ed690613ff7565b80601f0160208091040260200160405190810160405280929190818152602001828054612f0290613ff7565b8015612f4f5780601f10612f2457610100808354040283529160200191612f4f565b820191906000526020600020905b815481529060010190602001808311612f3257829003601f168201915b50505050508152602001600582018054612f6890613ff7565b80601f0160208091040260200160405190810160405280929190818152602001828054612f9490613ff7565b8015612fe15780601f10612fb657610100808354040283529160200191612fe1565b820191906000526020600020905b815481529060010190602001808311612fc457829003601f168201915b50505050508152602001600682015481526020016007820154815260200160088201805461300e90613ff7565b80601f016020809104026020016040519081016040528092919081815260200182805461303a90613ff7565b80156130875780601f1061305c57610100808354040283529160200191613087565b820191906000526020600020905b81548152906001019060200180831161306a57829003601f168201915b505050505081526020016009820154815250509050848160000151036130b8576130b5816101200151613a54565b91505b5081806130c490614057565b925050612cca565b8092505050919050565b606060006060600091505b6000805490508210156134db57600080838154811061310357613102613f99565b5b90600052602060002090600a0201604051806101400160405290816000820154815260200160018201805461313790613ff7565b80601f016020809104026020016040519081016040528092919081815260200182805461316390613ff7565b80156131b05780601f10613185576101008083540402835291602001916131b0565b820191906000526020600020905b81548152906001019060200180831161319357829003601f168201915b505050505081526020016002820180546131c990613ff7565b80601f01602080910402602001604051908101604052809291908181526020018280546131f590613ff7565b80156132425780601f1061321757610100808354040283529160200191613242565b820191906000526020600020905b81548152906001019060200180831161322557829003601f168201915b5050505050815260200160038201805461325b90613ff7565b80601f016020809104026020016040519081016040528092919081815260200182805461328790613ff7565b80156132d45780601f106132a9576101008083540402835291602001916132d4565b820191906000526020600020905b8154815290600101906020018083116132b757829003601f168201915b505050505081526020016004820180546132ed90613ff7565b80601f016020809104026020016040519081016040528092919081815260200182805461331990613ff7565b80156133665780601f1061333b57610100808354040283529160200191613366565b820191906000526020600020905b81548152906001019060200180831161334957829003601f168201915b5050505050815260200160058201805461337f90613ff7565b80601f01602080910402602001604051908101604052809291908181526020018280546133ab90613ff7565b80156133f85780601f106133cd576101008083540402835291602001916133f8565b820191906000526020600020905b8154815290600101906020018083116133db57829003601f168201915b50505050508152602001600682015481526020016007820154815260200160088201805461342590613ff7565b80601f016020809104026020016040519081016040528092919081815260200182805461345190613ff7565b801561349e5780601f106134735761010080835404028352916020019161349e565b820191906000526020600020905b81548152906001019060200180831161348157829003601f168201915b505050505081526020016009820154815250509050848160000151036134c75780610100015191505b5081806134d390614057565b9250506130e1565b8092505050919050565b60606000606080600092505b60008054905083101561391657600080848154811061351357613512613f99565b5b90600052602060002090600a0201604051806101400160405290816000820154815260200160018201805461354790613ff7565b80601f016020809104026020016040519081016040528092919081815260200182805461357390613ff7565b80156135c05780601f10613595576101008083540402835291602001916135c0565b820191906000526020600020905b8154815290600101906020018083116135a357829003601f168201915b505050505081526020016002820180546135d990613ff7565b80601f016020809104026020016040519081016040528092919081815260200182805461360590613ff7565b80156136525780601f1061362757610100808354040283529160200191613652565b820191906000526020600020905b81548152906001019060200180831161363557829003601f168201915b5050505050815260200160038201805461366b90613ff7565b80601f016020809104026020016040519081016040528092919081815260200182805461369790613ff7565b80156136e45780601f106136b9576101008083540402835291602001916136e4565b820191906000526020600020905b8154815290600101906020018083116136c757829003601f168201915b505050505081526020016004820180546136fd90613ff7565b80601f016020809104026020016040519081016040528092919081815260200182805461372990613ff7565b80156137765780601f1061374b57610100808354040283529160200191613776565b820191906000526020600020905b81548152906001019060200180831161375957829003601f168201915b5050505050815260200160058201805461378f90613ff7565b80601f01602080910402602001604051908101604052809291908181526020018280546137bb90613ff7565b80156138085780601f106137dd57610100808354040283529160200191613808565b820191906000526020600020905b8154815290600101906020018083116137eb57829003601f168201915b50505050508152602001600682015481526020016007820154815260200160088201805461383590613ff7565b80601f016020809104026020016040519081016040528092919081815260200182805461386190613ff7565b80156138ae5780601f10613883576101008083540402835291602001916138ae565b820191906000526020600020905b81548152906001019060200180831161389157829003601f168201915b505050505081526020016009820154815250509050858160c0015103613902576138db8160000151613a54565b925081836040516020016138f092919061415a565b60405160208183030381529060405291505b50828061390e90614057565b9350506134f1565b809350505050919050565b60006040518061014001604052808c81526020018b81526020018a815260200189815260200188815260200187815260200186815260200185815260200184815260200183815250905060008190806001815401808255809150506001900390600052602060002090600a02016000909190919091506000820151816000015560208201518160010190816139b69190614339565b5060408201518160020190816139cc9190614339565b5060608201518160030190816139e29190614339565b5060808201518160040190816139f89190614339565b5060a0820151816005019081613a0e9190614339565b5060c0820151816006015560e08201518160070155610100820151816008019081613a399190614339565b50610120820151816009015550505050505050505050505050565b606060008203613a9b576040518060400160405280600181526020017f30000000000000000000000000000000000000000000000000000000000000008152509050613baf565b600082905060005b60008214613acd578080613ab690614057565b915050600a82613ac6919061443a565b9150613aa3565b60008167ffffffffffffffff811115613ae957613ae8613ce7565b5b6040519080825280601f01601f191660200182016040528015613b1b5781602001600182028036833780820191505090505b5090505b60008514613ba857600182613b34919061446b565b9150600a85613b43919061449f565b6030613b4f91906144d0565b60f81b818381518110613b6557613b64613f99565b5b60200101907effffffffffffffffffffffffffffffffffffffffffffffffffffffffffffff1916908160001a905350600a85613ba1919061443a565b9450613b1f565b8093505050505b919050565b6000604051905090565b600080fd5b600080fd5b6000819050919050565b613bdb81613bc8565b8114613be657600080fd5b50565b600081359050613bf881613bd2565b92915050565b600060208284031215613c1457613c13613bbe565b5b6000613c2284828501613be9565b91505092915050565b600081519050919050565b600082825260208201905092915050565b60005b83811015613c65578082015181840152602081019050613c4a565b60008484015250505050565b6000601f19601f8301169050919050565b6000613c8d82613c2b565b613c978185613c36565b9350613ca7818560208601613c47565b613cb081613c71565b840191505092915050565b60006020820190508181036000830152613cd58184613c82565b905092915050565b600080fd5b600080fd5b7f4e487b7100000000000000000000000000000000000000000000000000000000600052604160045260246000fd5b613d1f82613c71565b810181811067ffffffffffffffff82111715613d3e57613d3d613ce7565b5b80604052505050565b6000613d51613bb4565b9050613d5d8282613d16565b919050565b600067ffffffffffffffff821115613d7d57613d7c613ce7565b5b613d8682613c71565b9050602081019050919050565b82818337600083830152505050565b6000613db5613db084613d62565b613d47565b905082815260208101848484011115613dd157613dd0613ce2565b5b613ddc848285613d93565b509392505050565b600082601f830112613df957613df8613cdd565b5b8135613e09848260208601613da2565b91505092915050565b6000806000806000806000806000806101408b8d031215613e3657613e35613bbe565b5b6000613e448d828e01613be9565b9a505060208b013567ffffffffffffffff811115613e6557613e64613bc3565b5b613e718d828e01613de4565b99505060408b013567ffffffffffffffff811115613e9257613e91613bc3565b5b613e9e8d828e01613de4565b98505060608b013567ffffffffffffffff811115613ebf57613ebe613bc3565b5b613ecb8d828e01613de4565b97505060808b013567ffffffffffffffff811115613eec57613eeb613bc3565b5b613ef88d828e01613de4565b96505060a08b013567ffffffffffffffff811115613f1957613f18613bc3565b5b613f258d828e01613de4565b95505060c0613f368d828e01613be9565b94505060e0613f478d828e01613be9565b9350506101008b013567ffffffffffffffff811115613f6957613f68613bc3565b5b613f758d828e01613de4565b925050610120613f878d828e01613be9565b9150509295989b9194979a5092959850565b7f4e487b7100000000000000000000000000000000000000000000000000000000600052603260045260246000fd5b7f4e487b7100000000000000000000000000000000000000000000000000000000600052602260045260246000fd5b6000600282049050600182168061400f57607f821691505b60208210810361402257614021613fc8565b5b50919050565b7f4e487b7100000000000000000000000000000000000000000000000000000000600052601160045260246000fd5b600061406282613bc8565b91507fffffffffffffffffffffffffffffffffffffffffffffffffffffffffffffffff820361409457614093614028565b5b600182019050919050565b600081905092915050565b60006140b582613c2b565b6140bf818561409f565b93506140cf818560208601613c47565b80840191505092915050565b7f3a00000000000000000000000000000000000000000000000000000000000000815250565b600061410d82856140aa565b9150614118826140db565b60018201915061412882846140aa565b91508190509392505050565b7f2c00000000000000000000000000000000000000000000000000000000000000815250565b600061416682856140aa565b915061417182614134565b60018201915061418182846140aa565b91508190509392505050565b60008190508160005260206000209050919050565b60006020601f8301049050919050565b600082821b905092915050565b6000600883026141ef7fffffffffffffffffffffffffffffffffffffffffffffffffffffffffffffffff826141b2565b6141f986836141b2565b95508019841693508086168417925050509392505050565b6000819050919050565b600061423661423161422c84613bc8565b614211565b613bc8565b9050919050565b6000819050919050565b6142508361421b565b61426461425c8261423d565b8484546141bf565b825550505050565b600090565b61427961426c565b614284818484614247565b505050565b5b818110156142a85761429d600082614271565b60018101905061428a565b5050565b601f8211156142ed576142be8161418d565b6142c7846141a2565b810160208510156142d6578190505b6142ea6142e2856141a2565b830182614289565b50505b505050565b600082821c905092915050565b6000614310600019846008026142f2565b1980831691505092915050565b600061432983836142ff565b9150826002028217905092915050565b61434282613c2b565b67ffffffffffffffff81111561435b5761435a613ce7565b5b6143658254613ff7565b6143708282856142ac565b600060209050601f8311600181146143a35760008415614391578287015190505b61439b858261431d565b865550614403565b601f1984166143b18661418d565b60005b828110156143d9578489015182556001820191506020850194506020810190506143b4565b868310156143f657848901516143f2601f8916826142ff565b8355505b6001600288020188555050505b505050505050565b7f4e487b7100000000000000000000000000000000000000000000000000000000600052601260045260246000fd5b600061444582613bc8565b915061445083613bc8565b9250826144605761445f61440b565b5b828204905092915050565b600061447682613bc8565b915061448183613bc8565b925082820390508181111561449957614498614028565b5b92915050565b60006144aa82613bc8565b91506144b583613bc8565b9250826144c5576144c461440b565b5b828206905092915050565b60006144db82613bc8565b91506144e683613bc8565b92508282019050808211156144fe576144fd614028565b5b9291505056fea2646970667358221220f0384fa405e8ebe0bc2abd58cbe35f015a7a1b5a3d438dfb844e35f8b09778a864736f6c63430008100033",
  "immutableReferences": {},
  "source": "// Solidity program \r\n// to store \r\n// Employee Details\r\n\r\n// SPDX-License-Identifier: MIT\r\n\r\npragma solidity ^0.8.12;\r\n \r\n\r\n import \"@openzeppelin/contracts/utils/Strings.sol\";\r\n \r\n// Creating a Smart Contract\r\ncontract LandReg{\r\n  \r\n   // Structure of Land data\r\n   struct Land{     \r\n       // State variables\r\n       uint landid;\r\n       string ownername; \r\n       string landtype;\r\n       string geolocation;\r\n       string amount;\r\n       string regdate;\r\n       uint pincode;\r\n       uint kycno;\r\n       string contact;\r\n       uint surveyno;     \r\n   }\r\n   \r\n   //Dynamic array \r\n   Land []lands;\r\n\r\n  \r\n   // Function to add \r\n   // Land details\r\n   function addLand(uint landid, string memory ownername, string memory landtype, string memory geolocation, string memory amount, string memory regdate, uint  pincode, uint kycno, string memory contact,uint surveyno) public{\r\n       Land memory l=Land(landid,ownername,landtype,geolocation,amount,regdate,pincode,kycno,contact,surveyno);\r\n       lands.push(l);\r\n   }\r\n\r\n    //Function get land ids from pincode\r\n   function getPincodelandids(uint pincode) public view returns(string memory){\r\n       uint i;\r\n       string memory Slandid;\r\n       string memory totalpin;\r\n       for(i=0;i<lands.length;i++)\r\n       {\r\n           Land memory l =lands[i];\r\n           if(l.pincode==pincode)\r\n           {\r\n            Slandid=Strings.toString(l.landid);\r\n            totalpin=string.concat(totalpin,\",\",Slandid);\r\n           }          \r\n       }\r\n       return(totalpin);\r\n   }\r\n  \r\n\r\n    //Function get land ids from surveyno\r\n   function getSurveylandids(uint surveyno) public view returns(string memory){\r\n       uint i;\r\n       string memory Slandid;\r\n       string memory totalpin;\r\n       for(i=0;i<lands.length;i++)\r\n       {\r\n           Land memory l =lands[i];\r\n           if(l.surveyno==surveyno)\r\n           {\r\n            Slandid=Strings.toString(l.landid);\r\n            totalpin=string.concat(totalpin,\",\",Slandid);\r\n           }          \r\n       }\r\n       return(totalpin);\r\n   }\r\n\r\n\r\n    //Function get land ids from kycno\r\n   function getKyclandids(uint kycno) public view returns(string memory){\r\n       uint i;\r\n       string memory Slandid;\r\n       string memory totalpin;\r\n       for(i=0;i<lands.length;i++)\r\n       {\r\n           Land memory l =lands[i];\r\n           if(l.kycno==kycno)\r\n           {\r\n            Slandid=Strings.toString(l.landid);\r\n            totalpin=string.concat(totalpin,\",\",Slandid);\r\n           }          \r\n       }\r\n       return(totalpin);\r\n   }\r\n\r\n  //get owner name\r\n      function getOwner(uint landid) public view returns(string memory) {\r\n       uint i;\r\n       string memory data;\r\n       for(i=0;i<lands.length;i++)\r\n       {\r\n           Land memory l =lands[i];\r\n           if(l.landid==landid)\r\n           {\r\n            data=l.ownername;\r\n           }\r\n       }\r\n       return(data);\r\n   }\r\n\r\n//get pincode\r\n       function getPincode(uint landid) public view returns(string memory) {\r\n       uint i;\r\n       string memory data;\r\n       for(i=0;i<lands.length;i++)\r\n       {\r\n           Land memory l=lands[i];\r\n           if(l.landid==landid)\r\n           {\r\n            data=Strings.toString(l.pincode);\r\n           }\r\n       }\r\n       return(data);\r\n   }\r\n\r\n//get kyc\r\n       function getKyc(uint landid) public view returns(string memory) {\r\n       uint i;\r\n       string memory data;\r\n       for(i=0;i<lands.length;i++)\r\n       {\r\n           Land memory l=lands[i];\r\n           if(l.landid==landid)\r\n           {\r\n            data=Strings.toString(l.kycno);\r\n           }\r\n       }\r\n       return(data);\r\n   }\r\n\r\n//get surveyno\r\n       function getSurveyno(uint landid) public view returns(string memory) {\r\n       uint i;\r\n       string memory data;\r\n       for(i=0;i<lands.length;i++)\r\n       {\r\n           Land memory l=lands[i];\r\n           if(l.landid==landid)\r\n           {\r\n            data=Strings.toString(l.surveyno);\r\n           }\r\n       }\r\n       return(data);\r\n   }\r\n\r\n//get land type\r\n       function getLandtype(uint landid) public view returns(string memory) {\r\n       uint i;\r\n       string memory data;\r\n       for(i=0;i<lands.length;i++)\r\n       {\r\n           Land memory l=lands[i];\r\n           if(l.landid==landid)\r\n           {\r\n            data=l.landtype;\r\n           }\r\n       }\r\n       return(data);\r\n   }\r\n\r\n\r\n       function getGeolocation(uint landid)  public view returns(string memory){\r\n       uint i;\r\n       string memory data;\r\n       for(i=0;i<lands.length;i++)\r\n       {\r\n           Land memory l =lands[i];\r\n\r\n           if(l.landid==landid)\r\n           {\r\n            data=l.geolocation;\r\n           }\r\n       }\r\n       return(data);\r\n   }\r\n       \r\n       \r\n       function getAmount(uint landid) public view returns(string memory){\r\n       uint i;\r\n       string memory data;\r\n       for(i=0;i<lands.length;i++)\r\n       {\r\n           Land memory l=lands[i];\r\n\r\n           if(l.landid==landid)\r\n           {\r\n            data=l.amount;\r\n           }\r\n       }\r\n     return(data);\r\n   }\r\n\r\n\r\n       function getRegdate(uint landid) public view returns(string memory){\r\n       uint i;\r\n       string memory data;\r\n       for(i=0;i<lands.length;i++)\r\n       {\r\n           Land memory l=lands[i];\r\n\r\n           if(l.landid==landid)\r\n           {\r\n            data=l.regdate;\r\n           }\r\n       }\r\n     return(data);\r\n   }\r\n\r\n\r\n  //get contact\r\n      function getContact(uint landid) public view returns(string memory) {\r\n       uint i;\r\n       string memory data;\r\n       for(i=0;i<lands.length;i++)\r\n       {\r\n           Land memory l =lands[i];\r\n           if(l.landid==landid)\r\n           {\r\n            data=l.contact;\r\n           }\r\n       }\r\n       return(data);\r\n   }\r\n\r\n   //function to track history of land\r\n    function TrackLand(uint landid) public view returns(string memory) {\r\n     uint i;\r\n     string memory result;\r\n     string memory data;\r\n     for (i=0;i<lands.length;i++)\r\n     {\r\n       Land memory l= lands[i];\r\n       if(l.landid==landid)\r\n       {\r\n         data=string.concat(l.ownername,\":\",l.regdate);\r\n         result=string.concat(result,\",\",data);\r\n       }\r\n     }\r\n     return(result);\r\n   }\r\n\r\n//ending bracket\r\n}\r\n\r\n// land id override is not added yet\r\n\r\n",
  "sourcePath": "C:\\Users\\USER\\Desktop\\Previous Version\\7 divided roles\\7 divided roles\\Blockchain\\Private Blockchain\\contracts\\Private.sol",
  "compiler": {
    "name": "solc",
    "version": "0.8.16+commit.07a7930e.Emscripten.clang"
  },
  "schemaVersion": "3.4.8",
  "updatedAt": "2022-08-18T16:41:36.581Z",
  "networkType": "ethereum",
  "devdoc": {
    "kind": "dev",
    "methods": {},
    "version": 1
  },
  "userdoc": {
    "kind": "user",
    "methods": {},
    "version": 1
  }
}