{
  "contractName": "PrivateLandReg",
  "abi": [
    {
      "inputs": [],
      "name": "checkAdmin",
      "outputs": [
        {
          "internalType": "string",
          "name": "",
          "type": "string"
        }
      ],
      "stateMutability": "view",
      "type": "function",
      "constant": true
    },
    {
      "inputs": [],
      "name": "gettotalLandids",
      "outputs": [
        {
          "internalType": "string",
          "name": "",
          "type": "string"
        }
      ],
      "stateMutability": "view",
      "type": "function",
      "constant": true
    },
    {
      "inputs": [
        {
          "internalType": "uint256",
          "name": "landid",
          "type": "uint256"
        },
        {
          "internalType": "string",
          "name": "ownername",
          "type": "string"
        },
        {
          "internalType": "string",
          "name": "landtype",
          "type": "string"
        },
        {
          "internalType": "string",
          "name": "geolocation",
          "type": "string"
        },
        {
          "internalType": "string",
          "name": "amount",
          "type": "string"
        },
        {
          "internalType": "string",
          "name": "regdate",
          "type": "string"
        },
        {
          "internalType": "uint256",
          "name": "pincode",
          "type": "uint256"
        },
        {
          "internalType": "uint256",
          "name": "kycno",
          "type": "uint256"
        },
        {
          "internalType": "string",
          "name": "contact",
          "type": "string"
        },
        {
          "internalType": "uint256",
          "name": "surveyno",
          "type": "uint256"
        }
      ],
      "name": "addLand",
      "outputs": [],
      "stateMutability": "nonpayable",
      "type": "function"
    },
    {
      "inputs": [
        {
          "internalType": "uint256",
          "name": "pincode",
          "type": "uint256"
        }
      ],
      "name": "getPincodelandids",
      "outputs": [
        {
          "internalType": "string",
          "name": "",
          "type": "string"
        }
      ],
      "stateMutability": "view",
      "type": "function",
      "constant": true
    },
    {
      "inputs": [
        {
          "internalType": "uint256",
          "name": "surveyno",
          "type": "uint256"
        }
      ],
      "name": "getSurveylandids",
      "outputs": [
        {
          "internalType": "string",
          "name": "",
          "type": "string"
        }
      ],
      "stateMutability": "view",
      "type": "function",
      "constant": true
    },
    {
      "inputs": [
        {
          "internalType": "uint256",
          "name": "kycno",
          "type": "uint256"
        }
      ],
      "name": "getKyclandids",
      "outputs": [
        {
          "internalType": "string",
          "name": "",
          "type": "string"
        }
      ],
      "stateMutability": "view",
      "type": "function",
      "constant": true
    },
    {
      "inputs": [
        {
          "internalType": "uint256",
          "name": "landid",
          "type": "uint256"
        }
      ],
      "name": "Checkid",
      "outputs": [
        {
          "internalType": "string",
          "name": "",
          "type": "string"
        }
      ],
      "stateMutability": "view",
      "type": "function",
      "constant": true
    },
    {
      "inputs": [
        {
          "internalType": "uint256",
          "name": "landid",
          "type": "uint256"
        }
      ],
      "name": "getOwner",
      "outputs": [
        {
          "internalType": "string",
          "name": "",
          "type": "string"
        }
      ],
      "stateMutability": "view",
      "type": "function",
      "constant": true
    },
    {
      "inputs": [
        {
          "internalType": "uint256",
          "name": "landid",
          "type": "uint256"
        }
      ],
      "name": "getPincode",
      "outputs": [
        {
          "internalType": "string",
          "name": "",
          "type": "string"
        }
      ],
      "stateMutability": "view",
      "type": "function",
      "constant": true
    },
    {
      "inputs": [
        {
          "internalType": "uint256",
          "name": "landid",
          "type": "uint256"
        }
      ],
      "name": "getKyc",
      "outputs": [
        {
          "internalType": "string",
          "name": "",
          "type": "string"
        }
      ],
      "stateMutability": "view",
      "type": "function",
      "constant": true
    },
    {
      "inputs": [
        {
          "internalType": "uint256",
          "name": "landid",
          "type": "uint256"
        }
      ],
      "name": "getSurveyno",
      "outputs": [
        {
          "internalType": "string",
          "name": "",
          "type": "string"
        }
      ],
      "stateMutability": "view",
      "type": "function",
      "constant": true
    },
    {
      "inputs": [
        {
          "internalType": "uint256",
          "name": "landid",
          "type": "uint256"
        }
      ],
      "name": "getLandtype",
      "outputs": [
        {
          "internalType": "string",
          "name": "",
          "type": "string"
        }
      ],
      "stateMutability": "view",
      "type": "function",
      "constant": true
    },
    {
      "inputs": [
        {
          "internalType": "uint256",
          "name": "landid",
          "type": "uint256"
        }
      ],
      "name": "getGeolocation",
      "outputs": [
        {
          "internalType": "string",
          "name": "",
          "type": "string"
        }
      ],
      "stateMutability": "view",
      "type": "function",
      "constant": true
    },
    {
      "inputs": [
        {
          "internalType": "uint256",
          "name": "landid",
          "type": "uint256"
        }
      ],
      "name": "getAmount",
      "outputs": [
        {
          "internalType": "string",
          "name": "",
          "type": "string"
        }
      ],
      "stateMutability": "view",
      "type": "function",
      "constant": true
    },
    {
      "inputs": [
        {
          "internalType": "uint256",
          "name": "landid",
          "type": "uint256"
        }
      ],
      "name": "getRegdate",
      "outputs": [
        {
          "internalType": "string",
          "name": "",
          "type": "string"
        }
      ],
      "stateMutability": "view",
      "type": "function",
      "constant": true
    },
    {
      "inputs": [
        {
          "internalType": "uint256",
          "name": "landid",
          "type": "uint256"
        }
      ],
      "name": "getContact",
      "outputs": [
        {
          "internalType": "string",
          "name": "",
          "type": "string"
        }
      ],
      "stateMutability": "view",
      "type": "function",
      "constant": true
    },
    {
      "inputs": [
        {
          "internalType": "uint256",
          "name": "landid",
          "type": "uint256"
        }
      ],
      "name": "TrackLand",
      "outputs": [
        {
          "internalType": "string",
          "name": "",
          "type": "string"
        }
      ],
      "stateMutability": "view",
      "type": "function",
      "constant": true
    }
  ],
  "bytecode": "0x6080604052604051806060016040528073ab8483f64d9c6d1ecf9b849ae677dd3315835cb273ffffffffffffffffffffffffffffffffffffffff1673ffffffffffffffffffffffffffffffffffffffff168152602001734b20993bc481177ec7e8f571cecae8a9e22c02db73ffffffffffffffffffffffffffffffffffffffff1673ffffffffffffffffffffffffffffffffffffffff1681526020017378731d3ca6b7e34ac0f824c42a7cc18a495cabab73ffffffffffffffffffffffffffffffffffffffff1673ffffffffffffffffffffffffffffffffffffffff168152506000906003620000f192919062000106565b50348015620000ff57600080fd5b50620001b4565b82805482825590600052602060002090810192821562000182579160200282015b82811115620001815782518260006101000a81548173ffffffffffffffffffffffffffffffffffffffff021916908373ffffffffffffffffffffffffffffffffffffffff1602179055509160200191906001019062000127565b5b50905062000191919062000195565b5090565b5b80821115620001b057600081600090555060010162000196565b5090565b614f8d80620001c46000396000f3fe608060405234801561001057600080fd5b506004361061010b5760003560e01c8063ab150226116100a2578063e251c32d11610071578063e251c32d1461033e578063e41698611461036e578063e6505e1e1461038c578063fdde6e4a146103bc578063fe55894f146103ec5761010b565b8063ab15022614610290578063c41a360a146102ae578063c65f48c5146102de578063ccfc13e21461030e5761010b565b8063640dd6ec116100de578063640dd6ec146101d0578063773b63d5146102005780637cafd547146102305780639980ec86146102605761010b565b80630aeb071214610110578063201cc24814610140578063249fd2e114610170578063567d0324146101a0575b600080fd5b61012a60048036038101906101259190614651565b610408565b604051610137919061470e565b60405180910390f35b61015a60048036038101906101559190614651565b61081f565b604051610167919061470e565b60405180910390f35b61018a60048036038101906101859190614651565b610c2e565b604051610197919061470e565b60405180910390f35b6101ba60048036038101906101b59190614651565b61103d565b6040516101c7919061470e565b60405180910390f35b6101ea60048036038101906101e59190614651565b61144c565b6040516101f7919061470e565b60405180910390f35b61021a60048036038101906102159190614651565b6118c9565b604051610227919061470e565b60405180910390f35b61024a60048036038101906102459190614651565b611d23565b604051610257919061470e565b60405180910390f35b61027a60048036038101906102759190614651565b612161565b604051610287919061470e565b60405180910390f35b610298612570565b6040516102a5919061470e565b60405180910390f35b6102c860048036038101906102c39190614651565b612681565b6040516102d5919061470e565b60405180910390f35b6102f860048036038101906102f39190614651565b612a90565b604051610305919061470e565b60405180910390f35b61032860048036038101906103239190614651565b612ea7565b604051610335919061470e565b60405180910390f35b61035860048036038101906103539190614651565b6132e4565b604051610365919061470e565b60405180910390f35b6103766136fc565b604051610383919061470e565b60405180910390f35b6103a660048036038101906103a19190614651565b613b27565b6040516103b3919061470e565b60405180910390f35b6103d660048036038101906103d19190614651565b613f37565b6040516103e3919061470e565b60405180910390f35b61040660048036038101906104019190614865565b614374565b005b606060006060600091505b60018054905082101561081557600060018381548110610436576104356149ec565b5b90600052602060002090600a0201604051806101400160405290816000820154815260200160018201805461046a90614a4a565b80601f016020809104026020016040519081016040528092919081815260200182805461049690614a4a565b80156104e35780601f106104b8576101008083540402835291602001916104e3565b820191906000526020600020905b8154815290600101906020018083116104c657829003601f168201915b505050505081526020016002820180546104fc90614a4a565b80601f016020809104026020016040519081016040528092919081815260200182805461052890614a4a565b80156105755780601f1061054a57610100808354040283529160200191610575565b820191906000526020600020905b81548152906001019060200180831161055857829003601f168201915b5050505050815260200160038201805461058e90614a4a565b80601f01602080910402602001604051908101604052809291908181526020018280546105ba90614a4a565b80156106075780601f106105dc57610100808354040283529160200191610607565b820191906000526020600020905b8154815290600101906020018083116105ea57829003601f168201915b5050505050815260200160048201805461062090614a4a565b80601f016020809104026020016040519081016040528092919081815260200182805461064c90614a4a565b80156106995780601f1061066e57610100808354040283529160200191610699565b820191906000526020600020905b81548152906001019060200180831161067c57829003601f168201915b505050505081526020016005820180546106b290614a4a565b80601f01602080910402602001604051908101604052809291908181526020018280546106de90614a4a565b801561072b5780601f106107005761010080835404028352916020019161072b565b820191906000526020600020905b81548152906001019060200180831161070e57829003601f168201915b50505050508152602001600682015481526020016007820154815260200160088201805461075890614a4a565b80601f016020809104026020016040519081016040528092919081815260200182805461078490614a4a565b80156107d15780601f106107a6576101008083540402835291602001916107d1565b820191906000526020600020905b8154815290600101906020018083116107b457829003601f168201915b50505050508152602001600982015481525050905084816000015103610801576107fe8160e001516144a7565b91505b50818061080d90614aaa565b925050610413565b8092505050919050565b606060006060600091505b600180549050821015610c245760006001838154811061084d5761084c6149ec565b5b90600052602060002090600a0201604051806101400160405290816000820154815260200160018201805461088190614a4a565b80601f01602080910402602001604051908101604052809291908181526020018280546108ad90614a4a565b80156108fa5780601f106108cf576101008083540402835291602001916108fa565b820191906000526020600020905b8154815290600101906020018083116108dd57829003601f168201915b5050505050815260200160028201805461091390614a4a565b80601f016020809104026020016040519081016040528092919081815260200182805461093f90614a4a565b801561098c5780601f106109615761010080835404028352916020019161098c565b820191906000526020600020905b81548152906001019060200180831161096f57829003601f168201915b505050505081526020016003820180546109a590614a4a565b80601f01602080910402602001604051908101604052809291908181526020018280546109d190614a4a565b8015610a1e5780601f106109f357610100808354040283529160200191610a1e565b820191906000526020600020905b815481529060010190602001808311610a0157829003601f168201915b50505050508152602001600482018054610a3790614a4a565b80601f0160208091040260200160405190810160405280929190818152602001828054610a6390614a4a565b8015610ab05780601f10610a8557610100808354040283529160200191610ab0565b820191906000526020600020905b815481529060010190602001808311610a9357829003601f168201915b50505050508152602001600582018054610ac990614a4a565b80601f0160208091040260200160405190810160405280929190818152602001828054610af590614a4a565b8015610b425780601f10610b1757610100808354040283529160200191610b42565b820191906000526020600020905b815481529060010190602001808311610b2557829003601f168201915b505050505081526020016006820154815260200160078201548152602001600882018054610b6f90614a4a565b80601f0160208091040260200160405190810160405280929190818152602001828054610b9b90614a4a565b8015610be85780601f10610bbd57610100808354040283529160200191610be8565b820191906000526020600020905b815481529060010190602001808311610bcb57829003601f168201915b50505050508152602001600982015481525050905084816000015103610c1057806040015191505b508180610c1c90614aaa565b92505061082a565b8092505050919050565b606060006060600091505b60018054905082101561103357600060018381548110610c5c57610c5b6149ec565b5b90600052602060002090600a02016040518061014001604052908160008201548152602001600182018054610c9090614a4a565b80601f0160208091040260200160405190810160405280929190818152602001828054610cbc90614a4a565b8015610d095780601f10610cde57610100808354040283529160200191610d09565b820191906000526020600020905b815481529060010190602001808311610cec57829003601f168201915b50505050508152602001600282018054610d2290614a4a565b80601f0160208091040260200160405190810160405280929190818152602001828054610d4e90614a4a565b8015610d9b5780601f10610d7057610100808354040283529160200191610d9b565b820191906000526020600020905b815481529060010190602001808311610d7e57829003601f168201915b50505050508152602001600382018054610db490614a4a565b80601f0160208091040260200160405190810160405280929190818152602001828054610de090614a4a565b8015610e2d5780601f10610e0257610100808354040283529160200191610e2d565b820191906000526020600020905b815481529060010190602001808311610e1057829003601f168201915b50505050508152602001600482018054610e4690614a4a565b80601f0160208091040260200160405190810160405280929190818152602001828054610e7290614a4a565b8015610ebf5780601f10610e9457610100808354040283529160200191610ebf565b820191906000526020600020905b815481529060010190602001808311610ea257829003601f168201915b50505050508152602001600582018054610ed890614a4a565b80601f0160208091040260200160405190810160405280929190818152602001828054610f0490614a4a565b8015610f515780601f10610f2657610100808354040283529160200191610f51565b820191906000526020600020905b815481529060010190602001808311610f3457829003601f168201915b505050505081526020016006820154815260200160078201548152602001600882018054610f7e90614a4a565b80601f0160208091040260200160405190810160405280929190818152602001828054610faa90614a4a565b8015610ff75780601f10610fcc57610100808354040283529160200191610ff7565b820191906000526020600020905b815481529060010190602001808311610fda57829003601f168201915b5050505050815260200160098201548152505090508481600001510361101f57806060015191505b50818061102b90614aaa565b925050610c39565b8092505050919050565b606060006060600091505b6001805490508210156114425760006001838154811061106b5761106a6149ec565b5b90600052602060002090600a0201604051806101400160405290816000820154815260200160018201805461109f90614a4a565b80601f01602080910402602001604051908101604052809291908181526020018280546110cb90614a4a565b80156111185780601f106110ed57610100808354040283529160200191611118565b820191906000526020600020905b8154815290600101906020018083116110fb57829003601f168201915b5050505050815260200160028201805461113190614a4a565b80601f016020809104026020016040519081016040528092919081815260200182805461115d90614a4a565b80156111aa5780601f1061117f576101008083540402835291602001916111aa565b820191906000526020600020905b81548152906001019060200180831161118d57829003601f168201915b505050505081526020016003820180546111c390614a4a565b80601f01602080910402602001604051908101604052809291908181526020018280546111ef90614a4a565b801561123c5780601f106112115761010080835404028352916020019161123c565b820191906000526020600020905b81548152906001019060200180831161121f57829003601f168201915b5050505050815260200160048201805461125590614a4a565b80601f016020809104026020016040519081016040528092919081815260200182805461128190614a4a565b80156112ce5780601f106112a3576101008083540402835291602001916112ce565b820191906000526020600020905b8154815290600101906020018083116112b157829003601f168201915b505050505081526020016005820180546112e790614a4a565b80601f016020809104026020016040519081016040528092919081815260200182805461131390614a4a565b80156113605780601f1061133557610100808354040283529160200191611360565b820191906000526020600020905b81548152906001019060200180831161134357829003601f168201915b50505050508152602001600682015481526020016007820154815260200160088201805461138d90614a4a565b80601f01602080910402602001604051908101604052809291908181526020018280546113b990614a4a565b80156114065780601f106113db57610100808354040283529160200191611406565b820191906000526020600020905b8154815290600101906020018083116113e957829003601f168201915b5050505050815260200160098201548152505090508481600001510361142e578060a0015191505b50818061143a90614aaa565b925050611048565b8092505050919050565b606060006060600091505b6001805490508210156118bf5760006001838154811061147a576114796149ec565b5b90600052602060002090600a020160405180610140016040529081600082015481526020016001820180546114ae90614a4a565b80601f01602080910402602001604051908101604052809291908181526020018280546114da90614a4a565b80156115275780601f106114fc57610100808354040283529160200191611527565b820191906000526020600020905b81548152906001019060200180831161150a57829003601f168201915b5050505050815260200160028201805461154090614a4a565b80601f016020809104026020016040519081016040528092919081815260200182805461156c90614a4a565b80156115b95780601f1061158e576101008083540402835291602001916115b9565b820191906000526020600020905b81548152906001019060200180831161159c57829003601f168201915b505050505081526020016003820180546115d290614a4a565b80601f01602080910402602001604051908101604052809291908181526020018280546115fe90614a4a565b801561164b5780601f106116205761010080835404028352916020019161164b565b820191906000526020600020905b81548152906001019060200180831161162e57829003601f168201915b5050505050815260200160048201805461166490614a4a565b80601f016020809104026020016040519081016040528092919081815260200182805461169090614a4a565b80156116dd5780601f106116b2576101008083540402835291602001916116dd565b820191906000526020600020905b8154815290600101906020018083116116c057829003601f168201915b505050505081526020016005820180546116f690614a4a565b80601f016020809104026020016040519081016040528092919081815260200182805461172290614a4a565b801561176f5780601f106117445761010080835404028352916020019161176f565b820191906000526020600020905b81548152906001019060200180831161175257829003601f168201915b50505050508152602001600682015481526020016007820154815260200160088201805461179c90614a4a565b80601f01602080910402602001604051908101604052809291908181526020018280546117c890614a4a565b80156118155780601f106117ea57610100808354040283529160200191611815565b820191906000526020600020905b8154815290600101906020018083116117f857829003601f168201915b50505050508152602001600982015481525050905084816000015103611872576040518060400160405280600181526020017f310000000000000000000000000000000000000000000000000000000000000081525091506118ab565b6040518060400160405280600181526020017f300000000000000000000000000000000000000000000000000000000000000081525091505b5081806118b790614aaa565b925050611457565b8092505050919050565b60606000606080600092505b600180549050831015611d18576000600184815481106118f8576118f76149ec565b5b90600052602060002090600a0201604051806101400160405290816000820154815260200160018201805461192c90614a4a565b80601f016020809104026020016040519081016040528092919081815260200182805461195890614a4a565b80156119a55780601f1061197a576101008083540402835291602001916119a5565b820191906000526020600020905b81548152906001019060200180831161198857829003601f168201915b505050505081526020016002820180546119be90614a4a565b80601f01602080910402602001604051908101604052809291908181526020018280546119ea90614a4a565b8015611a375780601f10611a0c57610100808354040283529160200191611a37565b820191906000526020600020905b815481529060010190602001808311611a1a57829003601f168201915b50505050508152602001600382018054611a5090614a4a565b80601f0160208091040260200160405190810160405280929190818152602001828054611a7c90614a4a565b8015611ac95780601f10611a9e57610100808354040283529160200191611ac9565b820191906000526020600020905b815481529060010190602001808311611aac57829003601f168201915b50505050508152602001600482018054611ae290614a4a565b80601f0160208091040260200160405190810160405280929190818152602001828054611b0e90614a4a565b8015611b5b5780601f10611b3057610100808354040283529160200191611b5b565b820191906000526020600020905b815481529060010190602001808311611b3e57829003601f168201915b50505050508152602001600582018054611b7490614a4a565b80601f0160208091040260200160405190810160405280929190818152602001828054611ba090614a4a565b8015611bed5780601f10611bc257610100808354040283529160200191611bed565b820191906000526020600020905b815481529060010190602001808311611bd057829003601f168201915b505050505081526020016006820154815260200160078201548152602001600882018054611c1a90614a4a565b80601f0160208091040260200160405190810160405280929190818152602001828054611c4690614a4a565b8015611c935780601f10611c6857610100808354040283529160200191611c93565b820191906000526020600020905b815481529060010190602001808311611c7657829003601f168201915b50505050508152602001600982015481525050905085816000015103611d045780602001518160a00151604051602001611cce929190614b54565b60405160208183030381529060405291508282604051602001611cf2929190614bad565b60405160208183030381529060405292505b508280611d1090614aaa565b9350506118d5565b819350505050919050565b60606000606080600092505b60018054905083101561215657600060018481548110611d5257611d516149ec565b5b90600052602060002090600a02016040518061014001604052908160008201548152602001600182018054611d8690614a4a565b80601f0160208091040260200160405190810160405280929190818152602001828054611db290614a4a565b8015611dff5780601f10611dd457610100808354040283529160200191611dff565b820191906000526020600020905b815481529060010190602001808311611de257829003601f168201915b50505050508152602001600282018054611e1890614a4a565b80601f0160208091040260200160405190810160405280929190818152602001828054611e4490614a4a565b8015611e915780601f10611e6657610100808354040283529160200191611e91565b820191906000526020600020905b815481529060010190602001808311611e7457829003601f168201915b50505050508152602001600382018054611eaa90614a4a565b80601f0160208091040260200160405190810160405280929190818152602001828054611ed690614a4a565b8015611f235780601f10611ef857610100808354040283529160200191611f23565b820191906000526020600020905b815481529060010190602001808311611f0657829003601f168201915b50505050508152602001600482018054611f3c90614a4a565b80601f0160208091040260200160405190810160405280929190818152602001828054611f6890614a4a565b8015611fb55780601f10611f8a57610100808354040283529160200191611fb5565b820191906000526020600020905b815481529060010190602001808311611f9857829003601f168201915b50505050508152602001600582018054611fce90614a4a565b80601f0160208091040260200160405190810160405280929190818152602001828054611ffa90614a4a565b80156120475780601f1061201c57610100808354040283529160200191612047565b820191906000526020600020905b81548152906001019060200180831161202a57829003601f168201915b50505050508152602001600682015481526020016007820154815260200160088201805461207490614a4a565b80601f01602080910402602001604051908101604052809291908181526020018280546120a090614a4a565b80156120ed5780601f106120c2576101008083540402835291602001916120ed565b820191906000526020600020905b8154815290600101906020018083116120d057829003601f168201915b50505050508152602001600982015481525050905085816101200151036121425761211b81600001516144a7565b92508183604051602001612130929190614bad565b60405160208183030381529060405291505b50828061214e90614aaa565b935050611d2f565b809350505050919050565b606060006060600091505b6001805490508210156125665760006001838154811061218f5761218e6149ec565b5b90600052602060002090600a020160405180610140016040529081600082015481526020016001820180546121c390614a4a565b80601f01602080910402602001604051908101604052809291908181526020018280546121ef90614a4a565b801561223c5780601f106122115761010080835404028352916020019161223c565b820191906000526020600020905b81548152906001019060200180831161221f57829003601f168201915b5050505050815260200160028201805461225590614a4a565b80601f016020809104026020016040519081016040528092919081815260200182805461228190614a4a565b80156122ce5780601f106122a3576101008083540402835291602001916122ce565b820191906000526020600020905b8154815290600101906020018083116122b157829003601f168201915b505050505081526020016003820180546122e790614a4a565b80601f016020809104026020016040519081016040528092919081815260200182805461231390614a4a565b80156123605780601f1061233557610100808354040283529160200191612360565b820191906000526020600020905b81548152906001019060200180831161234357829003601f168201915b5050505050815260200160048201805461237990614a4a565b80601f01602080910402602001604051908101604052809291908181526020018280546123a590614a4a565b80156123f25780601f106123c7576101008083540402835291602001916123f2565b820191906000526020600020905b8154815290600101906020018083116123d557829003601f168201915b5050505050815260200160058201805461240b90614a4a565b80601f016020809104026020016040519081016040528092919081815260200182805461243790614a4a565b80156124845780601f1061245957610100808354040283529160200191612484565b820191906000526020600020905b81548152906001019060200180831161246757829003601f168201915b5050505050815260200160068201548152602001600782015481526020016008820180546124b190614a4a565b80601f01602080910402602001604051908101604052809291908181526020018280546124dd90614a4a565b801561252a5780601f106124ff5761010080835404028352916020019161252a565b820191906000526020600020905b81548152906001019060200180831161250d57829003601f168201915b5050505050815260200160098201548152505090508481600001510361255257806080015191505b50818061255e90614aaa565b92505061216c565b8092505050919050565b606060005b600080549050811015612644573373ffffffffffffffffffffffffffffffffffffffff16600082815481106125ad576125ac6149ec565b5b9060005260206000200160009054906101000a900473ffffffffffffffffffffffffffffffffffffffff1673ffffffffffffffffffffffffffffffffffffffff1603612631576040518060400160405280600581526020017f41646d696e00000000000000000000000000000000000000000000000000000081525091505061267e565b808061263c90614aaa565b915050612575565b506040518060400160405280600981526020017f4e6f742041646d696e000000000000000000000000000000000000000000000081525090505b90565b606060006060600091505b600180549050821015612a86576000600183815481106126af576126ae6149ec565b5b90600052602060002090600a020160405180610140016040529081600082015481526020016001820180546126e390614a4a565b80601f016020809104026020016040519081016040528092919081815260200182805461270f90614a4a565b801561275c5780601f106127315761010080835404028352916020019161275c565b820191906000526020600020905b81548152906001019060200180831161273f57829003601f168201915b5050505050815260200160028201805461277590614a4a565b80601f01602080910402602001604051908101604052809291908181526020018280546127a190614a4a565b80156127ee5780601f106127c3576101008083540402835291602001916127ee565b820191906000526020600020905b8154815290600101906020018083116127d157829003601f168201915b5050505050815260200160038201805461280790614a4a565b80601f016020809104026020016040519081016040528092919081815260200182805461283390614a4a565b80156128805780601f1061285557610100808354040283529160200191612880565b820191906000526020600020905b81548152906001019060200180831161286357829003601f168201915b5050505050815260200160048201805461289990614a4a565b80601f01602080910402602001604051908101604052809291908181526020018280546128c590614a4a565b80156129125780601f106128e757610100808354040283529160200191612912565b820191906000526020600020905b8154815290600101906020018083116128f557829003601f168201915b5050505050815260200160058201805461292b90614a4a565b80601f016020809104026020016040519081016040528092919081815260200182805461295790614a4a565b80156129a45780601f10612979576101008083540402835291602001916129a4565b820191906000526020600020905b81548152906001019060200180831161298757829003601f168201915b5050505050815260200160068201548152602001600782015481526020016008820180546129d190614a4a565b80601f01602080910402602001604051908101604052809291908181526020018280546129fd90614a4a565b8015612a4a5780601f10612a1f57610100808354040283529160200191612a4a565b820191906000526020600020905b815481529060010190602001808311612a2d57829003601f168201915b50505050508152602001600982015481525050905084816000015103612a7257806020015191505b508180612a7e90614aaa565b92505061268c565b8092505050919050565b606060006060600091505b600180549050821015612e9d57600060018381548110612abe57612abd6149ec565b5b90600052602060002090600a02016040518061014001604052908160008201548152602001600182018054612af290614a4a565b80601f0160208091040260200160405190810160405280929190818152602001828054612b1e90614a4a565b8015612b6b5780601f10612b4057610100808354040283529160200191612b6b565b820191906000526020600020905b815481529060010190602001808311612b4e57829003601f168201915b50505050508152602001600282018054612b8490614a4a565b80601f0160208091040260200160405190810160405280929190818152602001828054612bb090614a4a565b8015612bfd5780601f10612bd257610100808354040283529160200191612bfd565b820191906000526020600020905b815481529060010190602001808311612be057829003601f168201915b50505050508152602001600382018054612c1690614a4a565b80601f0160208091040260200160405190810160405280929190818152602001828054612c4290614a4a565b8015612c8f5780601f10612c6457610100808354040283529160200191612c8f565b820191906000526020600020905b815481529060010190602001808311612c7257829003601f168201915b50505050508152602001600482018054612ca890614a4a565b80601f0160208091040260200160405190810160405280929190818152602001828054612cd490614a4a565b8015612d215780601f10612cf657610100808354040283529160200191612d21565b820191906000526020600020905b815481529060010190602001808311612d0457829003601f168201915b50505050508152602001600582018054612d3a90614a4a565b80601f0160208091040260200160405190810160405280929190818152602001828054612d6690614a4a565b8015612db35780601f10612d8857610100808354040283529160200191612db3565b820191906000526020600020905b815481529060010190602001808311612d9657829003601f168201915b505050505081526020016006820154815260200160078201548152602001600882018054612de090614a4a565b80601f0160208091040260200160405190810160405280929190818152602001828054612e0c90614a4a565b8015612e595780601f10612e2e57610100808354040283529160200191612e59565b820191906000526020600020905b815481529060010190602001808311612e3c57829003601f168201915b50505050508152602001600982015481525050905084816000015103612e8957612e868160c001516144a7565b91505b508180612e9590614aaa565b925050612a9b565b8092505050919050565b60606000606080600092505b6001805490508310156132d957600060018481548110612ed657612ed56149ec565b5b90600052602060002090600a02016040518061014001604052908160008201548152602001600182018054612f0a90614a4a565b80601f0160208091040260200160405190810160405280929190818152602001828054612f3690614a4a565b8015612f835780601f10612f5857610100808354040283529160200191612f83565b820191906000526020600020905b815481529060010190602001808311612f6657829003601f168201915b50505050508152602001600282018054612f9c90614a4a565b80601f0160208091040260200160405190810160405280929190818152602001828054612fc890614a4a565b80156130155780601f10612fea57610100808354040283529160200191613015565b820191906000526020600020905b815481529060010190602001808311612ff857829003601f168201915b5050505050815260200160038201805461302e90614a4a565b80601f016020809104026020016040519081016040528092919081815260200182805461305a90614a4a565b80156130a75780601f1061307c576101008083540402835291602001916130a7565b820191906000526020600020905b81548152906001019060200180831161308a57829003601f168201915b505050505081526020016004820180546130c090614a4a565b80601f01602080910402602001604051908101604052809291908181526020018280546130ec90614a4a565b80156131395780601f1061310e57610100808354040283529160200191613139565b820191906000526020600020905b81548152906001019060200180831161311c57829003601f168201915b5050505050815260200160058201805461315290614a4a565b80601f016020809104026020016040519081016040528092919081815260200182805461317e90614a4a565b80156131cb5780601f106131a0576101008083540402835291602001916131cb565b820191906000526020600020905b8154815290600101906020018083116131ae57829003601f168201915b5050505050815260200160068201548152602001600782015481526020016008820180546131f890614a4a565b80601f016020809104026020016040519081016040528092919081815260200182805461322490614a4a565b80156132715780601f1061324657610100808354040283529160200191613271565b820191906000526020600020905b81548152906001019060200180831161325457829003601f168201915b505050505081526020016009820154815250509050858160e00151036132c55761329e81600001516144a7565b925081836040516020016132b3929190614bad565b60405160208183030381529060405291505b5082806132d190614aaa565b935050612eb3565b809350505050919050565b606060006060600091505b6001805490508210156136f257600060018381548110613312576133116149ec565b5b90600052602060002090600a0201604051806101400160405290816000820154815260200160018201805461334690614a4a565b80601f016020809104026020016040519081016040528092919081815260200182805461337290614a4a565b80156133bf5780601f10613394576101008083540402835291602001916133bf565b820191906000526020600020905b8154815290600101906020018083116133a257829003601f168201915b505050505081526020016002820180546133d890614a4a565b80601f016020809104026020016040519081016040528092919081815260200182805461340490614a4a565b80156134515780601f1061342657610100808354040283529160200191613451565b820191906000526020600020905b81548152906001019060200180831161343457829003601f168201915b5050505050815260200160038201805461346a90614a4a565b80601f016020809104026020016040519081016040528092919081815260200182805461349690614a4a565b80156134e35780601f106134b8576101008083540402835291602001916134e3565b820191906000526020600020905b8154815290600101906020018083116134c657829003601f168201915b505050505081526020016004820180546134fc90614a4a565b80601f016020809104026020016040519081016040528092919081815260200182805461352890614a4a565b80156135755780601f1061354a57610100808354040283529160200191613575565b820191906000526020600020905b81548152906001019060200180831161355857829003601f168201915b5050505050815260200160058201805461358e90614a4a565b80601f01602080910402602001604051908101604052809291908181526020018280546135ba90614a4a565b80156136075780601f106135dc57610100808354040283529160200191613607565b820191906000526020600020905b8154815290600101906020018083116135ea57829003601f168201915b50505050508152602001600682015481526020016007820154815260200160088201805461363490614a4a565b80601f016020809104026020016040519081016040528092919081815260200182805461366090614a4a565b80156136ad5780601f10613682576101008083540402835291602001916136ad565b820191906000526020600020905b81548152906001019060200180831161369057829003601f168201915b505050505081526020016009820154815250509050848160000151036136de576136db8161012001516144a7565b91505b5081806136ea90614aaa565b9250506132ef565b8092505050919050565b606080606060005b600180549050811015613b1e57600060018281548110613727576137266149ec565b5b90600052602060002090600a0201604051806101400160405290816000820154815260200160018201805461375b90614a4a565b80601f016020809104026020016040519081016040528092919081815260200182805461378790614a4a565b80156137d45780601f106137a9576101008083540402835291602001916137d4565b820191906000526020600020905b8154815290600101906020018083116137b757829003601f168201915b505050505081526020016002820180546137ed90614a4a565b80601f016020809104026020016040519081016040528092919081815260200182805461381990614a4a565b80156138665780601f1061383b57610100808354040283529160200191613866565b820191906000526020600020905b81548152906001019060200180831161384957829003601f168201915b5050505050815260200160038201805461387f90614a4a565b80601f01602080910402602001604051908101604052809291908181526020018280546138ab90614a4a565b80156138f85780601f106138cd576101008083540402835291602001916138f8565b820191906000526020600020905b8154815290600101906020018083116138db57829003601f168201915b5050505050815260200160048201805461391190614a4a565b80601f016020809104026020016040519081016040528092919081815260200182805461393d90614a4a565b801561398a5780601f1061395f5761010080835404028352916020019161398a565b820191906000526020600020905b81548152906001019060200180831161396d57829003601f168201915b505050505081526020016005820180546139a390614a4a565b80601f01602080910402602001604051908101604052809291908181526020018280546139cf90614a4a565b8015613a1c5780601f106139f157610100808354040283529160200191613a1c565b820191906000526020600020905b8154815290600101906020018083116139ff57829003601f168201915b505050505081526020016006820154815260200160078201548152602001600882018054613a4990614a4a565b80601f0160208091040260200160405190810160405280929190818152602001828054613a7590614a4a565b8015613ac25780601f10613a9757610100808354040283529160200191613ac2565b820191906000526020600020905b815481529060010190602001808311613aa557829003601f168201915b505050505081526020016009820154815250509050613ae481600001516144a7565b93508284604051602001613af9929190614bad565b6040516020818303038152906040529250508080613b1690614aaa565b915050613704565b50809250505090565b606060006060600091505b600180549050821015613f2d57600060018381548110613b5557613b546149ec565b5b90600052602060002090600a02016040518061014001604052908160008201548152602001600182018054613b8990614a4a565b80601f0160208091040260200160405190810160405280929190818152602001828054613bb590614a4a565b8015613c025780601f10613bd757610100808354040283529160200191613c02565b820191906000526020600020905b815481529060010190602001808311613be557829003601f168201915b50505050508152602001600282018054613c1b90614a4a565b80601f0160208091040260200160405190810160405280929190818152602001828054613c4790614a4a565b8015613c945780601f10613c6957610100808354040283529160200191613c94565b820191906000526020600020905b815481529060010190602001808311613c7757829003601f168201915b50505050508152602001600382018054613cad90614a4a565b80601f0160208091040260200160405190810160405280929190818152602001828054613cd990614a4a565b8015613d265780601f10613cfb57610100808354040283529160200191613d26565b820191906000526020600020905b815481529060010190602001808311613d0957829003601f168201915b50505050508152602001600482018054613d3f90614a4a565b80601f0160208091040260200160405190810160405280929190818152602001828054613d6b90614a4a565b8015613db85780601f10613d8d57610100808354040283529160200191613db8565b820191906000526020600020905b815481529060010190602001808311613d9b57829003601f168201915b50505050508152602001600582018054613dd190614a4a565b80601f0160208091040260200160405190810160405280929190818152602001828054613dfd90614a4a565b8015613e4a5780601f10613e1f57610100808354040283529160200191613e4a565b820191906000526020600020905b815481529060010190602001808311613e2d57829003601f168201915b505050505081526020016006820154815260200160078201548152602001600882018054613e7790614a4a565b80601f0160208091040260200160405190810160405280929190818152602001828054613ea390614a4a565b8015613ef05780601f10613ec557610100808354040283529160200191613ef0565b820191906000526020600020905b815481529060010190602001808311613ed357829003601f168201915b50505050508152602001600982015481525050905084816000015103613f195780610100015191505b508180613f2590614aaa565b925050613b32565b8092505050919050565b60606000606080600092505b60018054905083101561436957600060018481548110613f6657613f656149ec565b5b90600052602060002090600a02016040518061014001604052908160008201548152602001600182018054613f9a90614a4a565b80601f0160208091040260200160405190810160405280929190818152602001828054613fc690614a4a565b80156140135780601f10613fe857610100808354040283529160200191614013565b820191906000526020600020905b815481529060010190602001808311613ff657829003601f168201915b5050505050815260200160028201805461402c90614a4a565b80601f016020809104026020016040519081016040528092919081815260200182805461405890614a4a565b80156140a55780601f1061407a576101008083540402835291602001916140a5565b820191906000526020600020905b81548152906001019060200180831161408857829003601f168201915b505050505081526020016003820180546140be90614a4a565b80601f01602080910402602001604051908101604052809291908181526020018280546140ea90614a4a565b80156141375780601f1061410c57610100808354040283529160200191614137565b820191906000526020600020905b81548152906001019060200180831161411a57829003601f168201915b5050505050815260200160048201805461415090614a4a565b80601f016020809104026020016040519081016040528092919081815260200182805461417c90614a4a565b80156141c95780601f1061419e576101008083540402835291602001916141c9565b820191906000526020600020905b8154815290600101906020018083116141ac57829003601f168201915b505050505081526020016005820180546141e290614a4a565b80601f016020809104026020016040519081016040528092919081815260200182805461420e90614a4a565b801561425b5780601f106142305761010080835404028352916020019161425b565b820191906000526020600020905b81548152906001019060200180831161423e57829003601f168201915b50505050508152602001600682015481526020016007820154815260200160088201805461428890614a4a565b80601f01602080910402602001604051908101604052809291908181526020018280546142b490614a4a565b80156143015780601f106142d657610100808354040283529160200191614301565b820191906000526020600020905b8154815290600101906020018083116142e457829003601f168201915b505050505081526020016009820154815250509050858160c00151036143555761432e81600001516144a7565b92508183604051602001614343929190614bad565b60405160208183030381529060405291505b50828061436190614aaa565b935050613f43565b809350505050919050565b60006040518061014001604052808c81526020018b81526020018a815260200189815260200188815260200187815260200186815260200185815260200184815260200183815250905060018190806001815401808255809150506001900390600052602060002090600a02016000909190919091506000820151816000015560208201518160010190816144099190614d8c565b50604082015181600201908161441f9190614d8c565b5060608201518160030190816144359190614d8c565b50608082015181600401908161444b9190614d8c565b5060a08201518160050190816144619190614d8c565b5060c0820151816006015560e0820151816007015561010082015181600801908161448c9190614d8c565b50610120820151816009015550505050505050505050505050565b6060600082036144ee576040518060400160405280600181526020017f30000000000000000000000000000000000000000000000000000000000000008152509050614602565b600082905060005b6000821461452057808061450990614aaa565b915050600a826145199190614e8d565b91506144f6565b60008167ffffffffffffffff81111561453c5761453b61473a565b5b6040519080825280601f01601f19166020018201604052801561456e5781602001600182028036833780820191505090505b5090505b600085146145fb576001826145879190614ebe565b9150600a856145969190614ef2565b60306145a29190614f23565b60f81b8183815181106145b8576145b76149ec565b5b60200101907effffffffffffffffffffffffffffffffffffffffffffffffffffffffffffff1916908160001a905350600a856145f49190614e8d565b9450614572565b8093505050505b919050565b6000604051905090565b600080fd5b600080fd5b6000819050919050565b61462e8161461b565b811461463957600080fd5b50565b60008135905061464b81614625565b92915050565b60006020828403121561466757614666614611565b5b60006146758482850161463c565b91505092915050565b600081519050919050565b600082825260208201905092915050565b60005b838110156146b857808201518184015260208101905061469d565b60008484015250505050565b6000601f19601f8301169050919050565b60006146e08261467e565b6146ea8185614689565b93506146fa81856020860161469a565b614703816146c4565b840191505092915050565b6000602082019050818103600083015261472881846146d5565b905092915050565b600080fd5b600080fd5b7f4e487b7100000000000000000000000000000000000000000000000000000000600052604160045260246000fd5b614772826146c4565b810181811067ffffffffffffffff821117156147915761479061473a565b5b80604052505050565b60006147a4614607565b90506147b08282614769565b919050565b600067ffffffffffffffff8211156147d0576147cf61473a565b5b6147d9826146c4565b9050602081019050919050565b82818337600083830152505050565b6000614808614803846147b5565b61479a565b90508281526020810184848401111561482457614823614735565b5b61482f8482856147e6565b509392505050565b600082601f83011261484c5761484b614730565b5b813561485c8482602086016147f5565b91505092915050565b6000806000806000806000806000806101408b8d03121561488957614888614611565b5b60006148978d828e0161463c565b9a505060208b013567ffffffffffffffff8111156148b8576148b7614616565b5b6148c48d828e01614837565b99505060408b013567ffffffffffffffff8111156148e5576148e4614616565b5b6148f18d828e01614837565b98505060608b013567ffffffffffffffff81111561491257614911614616565b5b61491e8d828e01614837565b97505060808b013567ffffffffffffffff81111561493f5761493e614616565b5b61494b8d828e01614837565b96505060a08b013567ffffffffffffffff81111561496c5761496b614616565b5b6149788d828e01614837565b95505060c06149898d828e0161463c565b94505060e061499a8d828e0161463c565b9350506101008b013567ffffffffffffffff8111156149bc576149bb614616565b5b6149c88d828e01614837565b9250506101206149da8d828e0161463c565b9150509295989b9194979a5092959850565b7f4e487b7100000000000000000000000000000000000000000000000000000000600052603260045260246000fd5b7f4e487b7100000000000000000000000000000000000000000000000000000000600052602260045260246000fd5b60006002820490506001821680614a6257607f821691505b602082108103614a7557614a74614a1b565b5b50919050565b7f4e487b7100000000000000000000000000000000000000000000000000000000600052601160045260246000fd5b6000614ab58261461b565b91507fffffffffffffffffffffffffffffffffffffffffffffffffffffffffffffffff8203614ae757614ae6614a7b565b5b600182019050919050565b600081905092915050565b6000614b088261467e565b614b128185614af2565b9350614b2281856020860161469a565b80840191505092915050565b7f3a00000000000000000000000000000000000000000000000000000000000000815250565b6000614b608285614afd565b9150614b6b82614b2e565b600182019150614b7b8284614afd565b91508190509392505050565b7f2c00000000000000000000000000000000000000000000000000000000000000815250565b6000614bb98285614afd565b9150614bc482614b87565b600182019150614bd48284614afd565b91508190509392505050565b60008190508160005260206000209050919050565b60006020601f8301049050919050565b600082821b905092915050565b600060088302614c427fffffffffffffffffffffffffffffffffffffffffffffffffffffffffffffffff82614c05565b614c4c8683614c05565b95508019841693508086168417925050509392505050565b6000819050919050565b6000614c89614c84614c7f8461461b565b614c64565b61461b565b9050919050565b6000819050919050565b614ca383614c6e565b614cb7614caf82614c90565b848454614c12565b825550505050565b600090565b614ccc614cbf565b614cd7818484614c9a565b505050565b5b81811015614cfb57614cf0600082614cc4565b600181019050614cdd565b5050565b601f821115614d4057614d1181614be0565b614d1a84614bf5565b81016020851015614d29578190505b614d3d614d3585614bf5565b830182614cdc565b50505b505050565b600082821c905092915050565b6000614d6360001984600802614d45565b1980831691505092915050565b6000614d7c8383614d52565b9150826002028217905092915050565b614d958261467e565b67ffffffffffffffff811115614dae57614dad61473a565b5b614db88254614a4a565b614dc3828285614cff565b600060209050601f831160018114614df65760008415614de4578287015190505b614dee8582614d70565b865550614e56565b601f198416614e0486614be0565b60005b82811015614e2c57848901518255600182019150602085019450602081019050614e07565b86831015614e495784890151614e45601f891682614d52565b8355505b6001600288020188555050505b505050505050565b7f4e487b7100000000000000000000000000000000000000000000000000000000600052601260045260246000fd5b6000614e988261461b565b9150614ea38361461b565b925082614eb357614eb2614e5e565b5b828204905092915050565b6000614ec98261461b565b9150614ed48361461b565b9250828203905081811115614eec57614eeb614a7b565b5b92915050565b6000614efd8261461b565b9150614f088361461b565b925082614f1857614f17614e5e565b5b828206905092915050565b6000614f2e8261461b565b9150614f398361461b565b9250828201905080821115614f5157614f50614a7b565b5b9291505056fea26469706673582212201542a42e426cc765af36501833c0b0b615e5f06afce7b219d0ba3ec5f2cc15c464736f6c63430008100033",
  "immutableReferences": {},
  "source": "// Solidity program \r\n\r\n// SPDX-License-Identifier: MIT\r\n\r\npragma solidity ^0.8.12;\r\n \r\n import \"@openzeppelin/contracts/utils/Strings.sol\";\r\n \r\n// Creating a Smart Contract\r\ncontract PrivateLandReg{\r\n\r\n    //admin addreses\r\n    address[] listuser = [0xAb8483F64d9C6d1EcF9b849Ae677dD3315835cb2,\r\n                        0x4B20993Bc481177ec7E8f571ceCaE8A9e22C02db,\r\n                        0x78731D3Ca6b7E34aC0F824c42a7cC18A495cabaB];\r\n\r\n  \r\n   // Structure of Land data\r\n   struct Land{     \r\n       // State variables\r\n       uint landid;\r\n       string ownername; \r\n       string landtype;\r\n       string geolocation;\r\n       string amount;\r\n       string regdate;\r\n       uint pincode;\r\n       uint kycno;\r\n       string contact;\r\n       uint surveyno;\r\n   }\r\n   \r\n   //Dynamic array \r\n   Land []lands;\r\n\r\n    function checkAdmin() public view returns(string memory){\r\n         for(uint index = 0; index < listuser.length; index++){\r\n            if(listuser[index] == (msg.sender)) {\r\n                return(\"Admin\");\r\n            }\r\n        }\r\n        return(\"Not Admin\");\r\n    }\r\n\r\n    function gettotalLandids() public view returns(string memory){\r\n        string memory Slandid;\r\n        string memory totalpin;\r\n        for(uint i=0;i<lands.length;i++)\r\n        {\r\n            Land memory l =lands[i];\r\n            Slandid=Strings.toString(l.landid);\r\n            totalpin=string.concat(totalpin,\",\",Slandid);\r\n        }\r\n        return(totalpin);\r\n\r\n    }\r\n\r\n\r\n   // Function to add \r\n   // Land details\r\n   function addLand(uint landid, string memory ownername, string memory landtype, string memory geolocation, string memory amount, string memory regdate, uint  pincode, uint kycno, string memory contact,uint surveyno) public {\r\n       Land memory l=Land(landid,ownername,landtype,geolocation,amount,regdate,pincode,kycno,contact,surveyno);\r\n       lands.push(l);\r\n   }\r\n\r\n    //Function get land ids from pincode\r\n   function getPincodelandids(uint pincode) public view returns(string memory){\r\n       uint i;\r\n       string memory Slandid;\r\n       string memory totalpin;\r\n       for(i=0;i<lands.length;i++)\r\n       {\r\n           Land memory l =lands[i];\r\n           if(l.pincode==pincode)\r\n           {\r\n            Slandid=Strings.toString(l.landid);\r\n            totalpin=string.concat(totalpin,\",\",Slandid);\r\n           }          \r\n       }\r\n       return(totalpin);\r\n   }\r\n  \r\n\r\n\r\n    //Function get land ids from surveyno\r\n   function getSurveylandids(uint surveyno) public view returns(string memory){\r\n       uint i;\r\n       string memory Slandid;\r\n       string memory totalpin;\r\n       for(i=0;i<lands.length;i++)\r\n       {\r\n           Land memory l =lands[i];\r\n           if(l.surveyno==surveyno)\r\n           {\r\n            Slandid=Strings.toString(l.landid);\r\n            totalpin=string.concat(totalpin,\",\",Slandid);\r\n           }          \r\n       }\r\n       return(totalpin);\r\n   }\r\n\r\n\r\n    //Function get land ids from kycno\r\n   function getKyclandids(uint kycno) public view returns(string memory){\r\n       uint i;\r\n       string memory Slandid;\r\n       string memory totalpin;\r\n       for(i=0;i<lands.length;i++)\r\n       {\r\n           Land memory l =lands[i];\r\n           if(l.kycno==kycno)\r\n           {\r\n            Slandid=Strings.toString(l.landid);\r\n            totalpin=string.concat(totalpin,\",\",Slandid);\r\n           }          \r\n       }\r\n       return(totalpin);\r\n   }\r\n\r\n    //checkid\r\n      function Checkid(uint landid) public view returns(string memory) {\r\n       uint i;\r\n       string memory data;\r\n       for(i=0;i<lands.length;i++)\r\n       {\r\n           Land memory l =lands[i];\r\n           if(l.landid==landid)\r\n           {\r\n            data=\"1\";\r\n           } else {\r\n               data=\"0\";\r\n           }\r\n           \r\n       }\r\n       return(data);\r\n   }\r\n\r\n  //get owner name\r\n      function getOwner(uint landid) public view returns(string memory) {\r\n       uint i;\r\n       string memory data;\r\n       for(i=0;i<lands.length;i++)\r\n       {\r\n           Land memory l =lands[i];\r\n           if(l.landid==landid)\r\n           {\r\n            data=l.ownername;\r\n           }\r\n       }\r\n       return(data);\r\n   }\r\n\r\n\r\n//get pincode\r\n       function getPincode(uint landid) public view returns(string memory) {\r\n       uint i;\r\n       string memory data;\r\n       for(i=0;i<lands.length;i++)\r\n       {\r\n           Land memory l=lands[i];\r\n           if(l.landid==landid)\r\n           {\r\n            data=Strings.toString(l.pincode);\r\n           }\r\n       }\r\n       return(data);\r\n   }\r\n\r\n\r\n//get kyc\r\n       function getKyc(uint landid) public view returns(string memory) {\r\n       uint i;\r\n       string memory data;\r\n       for(i=0;i<lands.length;i++)\r\n       {\r\n           Land memory l=lands[i];\r\n           if(l.landid==landid)\r\n           {\r\n            data=Strings.toString(l.kycno);\r\n           }\r\n       }\r\n       return(data);\r\n   }\r\n\r\n//get surveyno\r\n       function getSurveyno(uint landid) public view returns(string memory) {\r\n       uint i;\r\n       string memory data;\r\n       for(i=0;i<lands.length;i++)\r\n       {\r\n           Land memory l=lands[i];\r\n           if(l.landid==landid)\r\n           {\r\n            data=Strings.toString(l.surveyno);\r\n           }\r\n       }\r\n       return(data);\r\n   }\r\n\r\n//get land type\r\n       function getLandtype(uint landid) public view returns(string memory) {\r\n       uint i;\r\n       string memory data;\r\n       for(i=0;i<lands.length;i++)\r\n       {\r\n           Land memory l=lands[i];\r\n           if(l.landid==landid)\r\n           {\r\n            data=l.landtype;\r\n           }\r\n       }\r\n       return(data);\r\n   }\r\n\r\n\r\n       function getGeolocation(uint landid)  public view returns(string memory){\r\n       uint i;\r\n       string memory data;\r\n       for(i=0;i<lands.length;i++)\r\n       {\r\n           Land memory l =lands[i];\r\n\r\n           if(l.landid==landid)\r\n           {\r\n            data=l.geolocation;\r\n           }\r\n       }\r\n       return(data);\r\n   }\r\n       \r\n       \r\n       function getAmount(uint landid) public view returns(string memory){\r\n       uint i;\r\n       string memory data;\r\n       for(i=0;i<lands.length;i++)\r\n       {\r\n           Land memory l=lands[i];\r\n\r\n           if(l.landid==landid)\r\n           {\r\n            data=l.amount;\r\n           }\r\n       }\r\n     return(data);\r\n   }\r\n\r\n\r\n    function getRegdate(uint landid) public view returns(string memory){\r\n       uint i;\r\n       string memory data;\r\n       for(i=0;i<lands.length;i++)\r\n       {\r\n           Land memory l=lands[i];\r\n\r\n           if(l.landid==landid)\r\n           {\r\n            data=l.regdate;\r\n           }\r\n       }\r\n     return(data);\r\n   }\r\n\r\n\r\n  //get contact\r\n      function getContact(uint landid) public view returns(string memory) {\r\n       uint i;\r\n       string memory data;\r\n       for(i=0;i<lands.length;i++)\r\n       {\r\n           Land memory l =lands[i];\r\n           if(l.landid==landid)\r\n           {\r\n            data=l.contact;\r\n           }\r\n       }\r\n       return(data);\r\n   }\r\n\r\n   //function to track history of land\r\n    function TrackLand(uint landid) public view returns(string memory) {\r\n     uint i;\r\n     string memory result;\r\n     string memory data;\r\n     for (i=0;i<lands.length;i++)\r\n     {\r\n       Land memory l= lands[i];\r\n       if(l.landid==landid)\r\n       {\r\n         data=string.concat(l.ownername,\":\",l.regdate);\r\n         result=string.concat(result,\",\",data);\r\n       }\r\n     }\r\n     return(result);\r\n   }\r\n\r\n//ending bracket\r\n}\r\n\r\n\r\n\r\n",
  "sourcePath": "D:\\All Downlaods\\11 complete (maps added)\\11 complete (maps added)\\Blockchain\\Private Blockchain\\contracts\\PrivateLandReg.sol",
  "compiler": {
    "name": "solc",
    "version": "0.8.16+commit.07a7930e.Emscripten.clang"
  },
  "schemaVersion": "3.4.10",
  "updatedAt": "2022-11-12T14:07:01.379Z",
  "networkType": "ethereum",
  "devdoc": {
    "kind": "dev",
    "methods": {},
    "version": 1
  },
  "userdoc": {
    "kind": "user",
    "methods": {},
    "version": 1
  }
}