{
  "contractName": "LandReg",
  "abi": [
    {
      "inputs": [
        {
          "internalType": "uint256",
          "name": "landid",
          "type": "uint256"
        },
        {
          "internalType": "string",
          "name": "ownername",
          "type": "string"
        },
        {
          "internalType": "string",
          "name": "landtype",
          "type": "string"
        },
        {
          "internalType": "string",
          "name": "geolocation",
          "type": "string"
        },
        {
          "internalType": "string",
          "name": "amount",
          "type": "string"
        },
        {
          "internalType": "string",
          "name": "regdate",
          "type": "string"
        },
        {
          "internalType": "uint256",
          "name": "pincode",
          "type": "uint256"
        }
      ],
      "name": "addLand",
      "outputs": [],
      "stateMutability": "nonpayable",
      "type": "function"
    },
    {
      "inputs": [
        {
          "internalType": "uint256",
          "name": "pincode",
          "type": "uint256"
        }
      ],
      "name": "getlandids",
      "outputs": [
        {
          "internalType": "string",
          "name": "",
          "type": "string"
        }
      ],
      "stateMutability": "view",
      "type": "function"
    },
    {
      "inputs": [
        {
          "internalType": "uint256",
          "name": "landid",
          "type": "uint256"
        }
      ],
      "name": "getOwner",
      "outputs": [
        {
          "internalType": "string",
          "name": "",
          "type": "string"
        }
      ],
      "stateMutability": "view",
      "type": "function"
    },
    {
      "inputs": [
        {
          "internalType": "uint256",
          "name": "landid",
          "type": "uint256"
        }
      ],
      "name": "getLandtype",
      "outputs": [
        {
          "internalType": "string",
          "name": "",
          "type": "string"
        }
      ],
      "stateMutability": "view",
      "type": "function"
    },
    {
      "inputs": [
        {
          "internalType": "uint256",
          "name": "landid",
          "type": "uint256"
        }
      ],
      "name": "getGeolocation",
      "outputs": [
        {
          "internalType": "string",
          "name": "",
          "type": "string"
        }
      ],
      "stateMutability": "view",
      "type": "function"
    },
    {
      "inputs": [
        {
          "internalType": "uint256",
          "name": "landid",
          "type": "uint256"
        }
      ],
      "name": "getAmount",
      "outputs": [
        {
          "internalType": "string",
          "name": "",
          "type": "string"
        }
      ],
      "stateMutability": "view",
      "type": "function"
    },
    {
      "inputs": [
        {
          "internalType": "uint256",
          "name": "landid",
          "type": "uint256"
        }
      ],
      "name": "getRegdate",
      "outputs": [
        {
          "internalType": "string",
          "name": "",
          "type": "string"
        }
      ],
      "stateMutability": "view",
      "type": "function"
    }
  ],
  "bytecode": "0x608060405234801561001057600080fd5b50612284806100206000396000f3fe608060405234801561001057600080fd5b506004361061007d5760003560e01c8063567d03241161005b578063567d0324146101125780639980ec8614610142578063c41a360a14610172578063c7c8f3b0146101a25761007d565b80631a9d69b814610082578063201cc248146100b2578063249fd2e1146100e2575b600080fd5b61009c600480360381019061009791906119fa565b6101be565b6040516100a99190611ab7565b60405180910390f35b6100cc60048036038101906100c791906119fa565b610553565b6040516100d99190611ab7565b60405180910390f35b6100fc60048036038101906100f791906119fa565b6108ef565b6040516101099190611ab7565b60405180910390f35b61012c600480360381019061012791906119fa565b610c8b565b6040516101399190611ab7565b60405180910390f35b61015c600480360381019061015791906119fa565b611027565b6040516101699190611ab7565b60405180910390f35b61018c600480360381019061018791906119fa565b6113c3565b6040516101999190611ab7565b60405180910390f35b6101bc60048036038101906101b79190611c0e565b61175f565b005b60606000606080600092505b6000805490508310156105485760008084815481106101ec576101eb611d3c565b5b90600052602060002090600702016040518060e00160405290816000820154815260200160018201805461021f90611d9a565b80601f016020809104026020016040519081016040528092919081815260200182805461024b90611d9a565b80156102985780601f1061026d57610100808354040283529160200191610298565b820191906000526020600020905b81548152906001019060200180831161027b57829003601f168201915b505050505081526020016002820180546102b190611d9a565b80601f01602080910402602001604051908101604052809291908181526020018280546102dd90611d9a565b801561032a5780601f106102ff5761010080835404028352916020019161032a565b820191906000526020600020905b81548152906001019060200180831161030d57829003601f168201915b5050505050815260200160038201805461034390611d9a565b80601f016020809104026020016040519081016040528092919081815260200182805461036f90611d9a565b80156103bc5780601f10610391576101008083540402835291602001916103bc565b820191906000526020600020905b81548152906001019060200180831161039f57829003601f168201915b505050505081526020016004820180546103d590611d9a565b80601f016020809104026020016040519081016040528092919081815260200182805461040190611d9a565b801561044e5780601f106104235761010080835404028352916020019161044e565b820191906000526020600020905b81548152906001019060200180831161043157829003601f168201915b5050505050815260200160058201805461046790611d9a565b80601f016020809104026020016040519081016040528092919081815260200182805461049390611d9a565b80156104e05780601f106104b5576101008083540402835291602001916104e0565b820191906000526020600020905b8154815290600101906020018083116104c357829003601f168201915b505050505081526020016006820154815250509050858160c00151036105345761050d8160000151611850565b92508183604051602001610522929190611e2d565b60405160208183030381529060405291505b50828061054090611e8f565b9350506101ca565b809350505050919050565b606060005b6000805490508110156108b057600080828154811061057a57610579611d3c565b5b90600052602060002090600702016040518060e0016040529081600082015481526020016001820180546105ad90611d9a565b80601f01602080910402602001604051908101604052809291908181526020018280546105d990611d9a565b80156106265780601f106105fb57610100808354040283529160200191610626565b820191906000526020600020905b81548152906001019060200180831161060957829003601f168201915b5050505050815260200160028201805461063f90611d9a565b80601f016020809104026020016040519081016040528092919081815260200182805461066b90611d9a565b80156106b85780601f1061068d576101008083540402835291602001916106b8565b820191906000526020600020905b81548152906001019060200180831161069b57829003601f168201915b505050505081526020016003820180546106d190611d9a565b80601f01602080910402602001604051908101604052809291908181526020018280546106fd90611d9a565b801561074a5780601f1061071f5761010080835404028352916020019161074a565b820191906000526020600020905b81548152906001019060200180831161072d57829003601f168201915b5050505050815260200160048201805461076390611d9a565b80601f016020809104026020016040519081016040528092919081815260200182805461078f90611d9a565b80156107dc5780601f106107b1576101008083540402835291602001916107dc565b820191906000526020600020905b8154815290600101906020018083116107bf57829003601f168201915b505050505081526020016005820180546107f590611d9a565b80601f016020809104026020016040519081016040528092919081815260200182805461082190611d9a565b801561086e5780601f106108435761010080835404028352916020019161086e565b820191906000526020600020905b81548152906001019060200180831161085157829003601f168201915b5050505050815260200160068201548152505090508381600001510361089c578060400151925050506108ea565b5080806108a890611e8f565b915050610558565b6040518060400160405280600981526020017f4e6f7420466f756e6400000000000000000000000000000000000000000000008152509150505b919050565b606060005b600080549050811015610c4c57600080828154811061091657610915611d3c565b5b90600052602060002090600702016040518060e00160405290816000820154815260200160018201805461094990611d9a565b80601f016020809104026020016040519081016040528092919081815260200182805461097590611d9a565b80156109c25780601f10610997576101008083540402835291602001916109c2565b820191906000526020600020905b8154815290600101906020018083116109a557829003601f168201915b505050505081526020016002820180546109db90611d9a565b80601f0160208091040260200160405190810160405280929190818152602001828054610a0790611d9a565b8015610a545780601f10610a2957610100808354040283529160200191610a54565b820191906000526020600020905b815481529060010190602001808311610a3757829003601f168201915b50505050508152602001600382018054610a6d90611d9a565b80601f0160208091040260200160405190810160405280929190818152602001828054610a9990611d9a565b8015610ae65780601f10610abb57610100808354040283529160200191610ae6565b820191906000526020600020905b815481529060010190602001808311610ac957829003601f168201915b50505050508152602001600482018054610aff90611d9a565b80601f0160208091040260200160405190810160405280929190818152602001828054610b2b90611d9a565b8015610b785780601f10610b4d57610100808354040283529160200191610b78565b820191906000526020600020905b815481529060010190602001808311610b5b57829003601f168201915b50505050508152602001600582018054610b9190611d9a565b80601f0160208091040260200160405190810160405280929190818152602001828054610bbd90611d9a565b8015610c0a5780601f10610bdf57610100808354040283529160200191610c0a565b820191906000526020600020905b815481529060010190602001808311610bed57829003601f168201915b50505050508152602001600682015481525050905083816000015103610c3857806060015192505050610c86565b508080610c4490611e8f565b9150506108f4565b6040518060400160405280600981526020017f4e6f7420466f756e6400000000000000000000000000000000000000000000008152509150505b919050565b606060005b600080549050811015610fe8576000808281548110610cb257610cb1611d3c565b5b90600052602060002090600702016040518060e001604052908160008201548152602001600182018054610ce590611d9a565b80601f0160208091040260200160405190810160405280929190818152602001828054610d1190611d9a565b8015610d5e5780601f10610d3357610100808354040283529160200191610d5e565b820191906000526020600020905b815481529060010190602001808311610d4157829003601f168201915b50505050508152602001600282018054610d7790611d9a565b80601f0160208091040260200160405190810160405280929190818152602001828054610da390611d9a565b8015610df05780601f10610dc557610100808354040283529160200191610df0565b820191906000526020600020905b815481529060010190602001808311610dd357829003601f168201915b50505050508152602001600382018054610e0990611d9a565b80601f0160208091040260200160405190810160405280929190818152602001828054610e3590611d9a565b8015610e825780601f10610e5757610100808354040283529160200191610e82565b820191906000526020600020905b815481529060010190602001808311610e6557829003601f168201915b50505050508152602001600482018054610e9b90611d9a565b80601f0160208091040260200160405190810160405280929190818152602001828054610ec790611d9a565b8015610f145780601f10610ee957610100808354040283529160200191610f14565b820191906000526020600020905b815481529060010190602001808311610ef757829003601f168201915b50505050508152602001600582018054610f2d90611d9a565b80601f0160208091040260200160405190810160405280929190818152602001828054610f5990611d9a565b8015610fa65780601f10610f7b57610100808354040283529160200191610fa6565b820191906000526020600020905b815481529060010190602001808311610f8957829003601f168201915b50505050508152602001600682015481525050905083816000015103610fd4578060a0015192505050611022565b508080610fe090611e8f565b915050610c90565b6040518060400160405280600981526020017f4e6f7420466f756e6400000000000000000000000000000000000000000000008152509150505b919050565b606060005b60008054905081101561138457600080828154811061104e5761104d611d3c565b5b90600052602060002090600702016040518060e00160405290816000820154815260200160018201805461108190611d9a565b80601f01602080910402602001604051908101604052809291908181526020018280546110ad90611d9a565b80156110fa5780601f106110cf576101008083540402835291602001916110fa565b820191906000526020600020905b8154815290600101906020018083116110dd57829003601f168201915b5050505050815260200160028201805461111390611d9a565b80601f016020809104026020016040519081016040528092919081815260200182805461113f90611d9a565b801561118c5780601f106111615761010080835404028352916020019161118c565b820191906000526020600020905b81548152906001019060200180831161116f57829003601f168201915b505050505081526020016003820180546111a590611d9a565b80601f01602080910402602001604051908101604052809291908181526020018280546111d190611d9a565b801561121e5780601f106111f35761010080835404028352916020019161121e565b820191906000526020600020905b81548152906001019060200180831161120157829003601f168201915b5050505050815260200160048201805461123790611d9a565b80601f016020809104026020016040519081016040528092919081815260200182805461126390611d9a565b80156112b05780601f10611285576101008083540402835291602001916112b0565b820191906000526020600020905b81548152906001019060200180831161129357829003601f168201915b505050505081526020016005820180546112c990611d9a565b80601f01602080910402602001604051908101604052809291908181526020018280546112f590611d9a565b80156113425780601f1061131757610100808354040283529160200191611342565b820191906000526020600020905b81548152906001019060200180831161132557829003601f168201915b50505050508152602001600682015481525050905083816000015103611370578060800151925050506113be565b50808061137c90611e8f565b91505061102c565b6040518060400160405280600981526020017f4e6f7420466f756e6400000000000000000000000000000000000000000000008152509150505b919050565b606060005b6000805490508110156117205760008082815481106113ea576113e9611d3c565b5b90600052602060002090600702016040518060e00160405290816000820154815260200160018201805461141d90611d9a565b80601f016020809104026020016040519081016040528092919081815260200182805461144990611d9a565b80156114965780601f1061146b57610100808354040283529160200191611496565b820191906000526020600020905b81548152906001019060200180831161147957829003601f168201915b505050505081526020016002820180546114af90611d9a565b80601f01602080910402602001604051908101604052809291908181526020018280546114db90611d9a565b80156115285780601f106114fd57610100808354040283529160200191611528565b820191906000526020600020905b81548152906001019060200180831161150b57829003601f168201915b5050505050815260200160038201805461154190611d9a565b80601f016020809104026020016040519081016040528092919081815260200182805461156d90611d9a565b80156115ba5780601f1061158f576101008083540402835291602001916115ba565b820191906000526020600020905b81548152906001019060200180831161159d57829003601f168201915b505050505081526020016004820180546115d390611d9a565b80601f01602080910402602001604051908101604052809291908181526020018280546115ff90611d9a565b801561164c5780601f106116215761010080835404028352916020019161164c565b820191906000526020600020905b81548152906001019060200180831161162f57829003601f168201915b5050505050815260200160058201805461166590611d9a565b80601f016020809104026020016040519081016040528092919081815260200182805461169190611d9a565b80156116de5780601f106116b3576101008083540402835291602001916116de565b820191906000526020600020905b8154815290600101906020018083116116c157829003601f168201915b5050505050815260200160068201548152505090508381600001510361170c5780602001519250505061175a565b50808061171890611e8f565b9150506113c8565b6040518060400160405280600981526020017f4e6f7420466f756e6400000000000000000000000000000000000000000000008152509150505b919050565b60006040518060e0016040528089815260200188815260200187815260200186815260200185815260200184815260200183815250905060008190806001815401808255809150506001900390600052602060002090600702016000909190919091506000820151816000015560208201518160010190816117e19190612083565b5060408201518160020190816117f79190612083565b50606082015181600301908161180d9190612083565b5060808201518160040190816118239190612083565b5060a08201518160050190816118399190612083565b5060c0820151816006015550505050505050505050565b606060008203611897576040518060400160405280600181526020017f300000000000000000000000000000000000000000000000000000000000000081525090506119ab565b600082905060005b600082146118c95780806118b290611e8f565b915050600a826118c29190612184565b915061189f565b60008167ffffffffffffffff8111156118e5576118e4611ae3565b5b6040519080825280601f01601f1916602001820160405280156119175781602001600182028036833780820191505090505b5090505b600085146119a45760018261193091906121b5565b9150600a8561193f91906121e9565b603061194b919061221a565b60f81b81838151811061196157611960611d3c565b5b60200101907effffffffffffffffffffffffffffffffffffffffffffffffffffffffffffff1916908160001a905350600a8561199d9190612184565b945061191b565b8093505050505b919050565b6000604051905090565b600080fd5b600080fd5b6000819050919050565b6119d7816119c4565b81146119e257600080fd5b50565b6000813590506119f4816119ce565b92915050565b600060208284031215611a1057611a0f6119ba565b5b6000611a1e848285016119e5565b91505092915050565b600081519050919050565b600082825260208201905092915050565b60005b83811015611a61578082015181840152602081019050611a46565b60008484015250505050565b6000601f19601f8301169050919050565b6000611a8982611a27565b611a938185611a32565b9350611aa3818560208601611a43565b611aac81611a6d565b840191505092915050565b60006020820190508181036000830152611ad18184611a7e565b905092915050565b600080fd5b600080fd5b7f4e487b7100000000000000000000000000000000000000000000000000000000600052604160045260246000fd5b611b1b82611a6d565b810181811067ffffffffffffffff82111715611b3a57611b39611ae3565b5b80604052505050565b6000611b4d6119b0565b9050611b598282611b12565b919050565b600067ffffffffffffffff821115611b7957611b78611ae3565b5b611b8282611a6d565b9050602081019050919050565b82818337600083830152505050565b6000611bb1611bac84611b5e565b611b43565b905082815260208101848484011115611bcd57611bcc611ade565b5b611bd8848285611b8f565b509392505050565b600082601f830112611bf557611bf4611ad9565b5b8135611c05848260208601611b9e565b91505092915050565b600080600080600080600060e0888a031215611c2d57611c2c6119ba565b5b6000611c3b8a828b016119e5565b975050602088013567ffffffffffffffff811115611c5c57611c5b6119bf565b5b611c688a828b01611be0565b965050604088013567ffffffffffffffff811115611c8957611c886119bf565b5b611c958a828b01611be0565b955050606088013567ffffffffffffffff811115611cb657611cb56119bf565b5b611cc28a828b01611be0565b945050608088013567ffffffffffffffff811115611ce357611ce26119bf565b5b611cef8a828b01611be0565b93505060a088013567ffffffffffffffff811115611d1057611d0f6119bf565b5b611d1c8a828b01611be0565b92505060c0611d2d8a828b016119e5565b91505092959891949750929550565b7f4e487b7100000000000000000000000000000000000000000000000000000000600052603260045260246000fd5b7f4e487b7100000000000000000000000000000000000000000000000000000000600052602260045260246000fd5b60006002820490506001821680611db257607f821691505b602082108103611dc557611dc4611d6b565b5b50919050565b600081905092915050565b6000611de182611a27565b611deb8185611dcb565b9350611dfb818560208601611a43565b80840191505092915050565b7f2c00000000000000000000000000000000000000000000000000000000000000815250565b6000611e398285611dd6565b9150611e4482611e07565b600182019150611e548284611dd6565b91508190509392505050565b7f4e487b7100000000000000000000000000000000000000000000000000000000600052601160045260246000fd5b6000611e9a826119c4565b91507fffffffffffffffffffffffffffffffffffffffffffffffffffffffffffffffff8203611ecc57611ecb611e60565b5b600182019050919050565b60008190508160005260206000209050919050565b60006020601f8301049050919050565b600082821b905092915050565b600060088302611f397fffffffffffffffffffffffffffffffffffffffffffffffffffffffffffffffff82611efc565b611f438683611efc565b95508019841693508086168417925050509392505050565b6000819050919050565b6000611f80611f7b611f76846119c4565b611f5b565b6119c4565b9050919050565b6000819050919050565b611f9a83611f65565b611fae611fa682611f87565b848454611f09565b825550505050565b600090565b611fc3611fb6565b611fce818484611f91565b505050565b5b81811015611ff257611fe7600082611fbb565b600181019050611fd4565b5050565b601f8211156120375761200881611ed7565b61201184611eec565b81016020851015612020578190505b61203461202c85611eec565b830182611fd3565b50505b505050565b600082821c905092915050565b600061205a6000198460080261203c565b1980831691505092915050565b60006120738383612049565b9150826002028217905092915050565b61208c82611a27565b67ffffffffffffffff8111156120a5576120a4611ae3565b5b6120af8254611d9a565b6120ba828285611ff6565b600060209050601f8311600181146120ed57600084156120db578287015190505b6120e58582612067565b86555061214d565b601f1984166120fb86611ed7565b60005b82811015612123578489015182556001820191506020850194506020810190506120fe565b86831015612140578489015161213c601f891682612049565b8355505b6001600288020188555050505b505050505050565b7f4e487b7100000000000000000000000000000000000000000000000000000000600052601260045260246000fd5b600061218f826119c4565b915061219a836119c4565b9250826121aa576121a9612155565b5b828204905092915050565b60006121c0826119c4565b91506121cb836119c4565b92508282039050818111156121e3576121e2611e60565b5b92915050565b60006121f4826119c4565b91506121ff836119c4565b92508261220f5761220e612155565b5b828206905092915050565b6000612225826119c4565b9150612230836119c4565b925082820190508082111561224857612247611e60565b5b9291505056fea2646970667358221220b06c796ea5f686838ec1e095624a8b074d5ed996995db02b7948ff33941fada364736f6c63430008100033",
  "immutableReferences": {},
  "source": "// Solidity program \r\n// to store \r\n// Employee Details\r\n\r\n// SPDX-License-Identifier: MIT\r\n\r\npragma solidity ^0.8.12;\r\n \r\n import \"@openzeppelin/contracts/utils/Strings.sol\";\r\n \r\n// Creating a Smart Contract\r\ncontract LandReg{\r\n  \r\n   // Structure of Land data\r\n   struct Land{     \r\n       // State variables\r\n       uint landid;\r\n       string ownername; \r\n       string landtype;\r\n       string geolocation;\r\n       string amount;\r\n       string regdate;\r\n       uint pincode;     \r\n   }\r\n   \r\n   //Dynamic array \r\n   Land []lands;\r\n\r\n  \r\n   // Function to add \r\n   // Land details\r\n   function addLand(uint landid, string memory ownername, string memory landtype, string memory geolocation, string memory amount, string memory regdate, uint  pincode) public{\r\n       Land memory l=Land(landid,ownername,landtype,geolocation,amount,regdate,pincode);\r\n       lands.push(l);\r\n   }\r\n\r\n    //Function get land ids from pincode\r\n   function getlandids(uint pincode) public view returns(string memory){\r\n       uint i;\r\n       string memory Slandid;\r\n       string memory totalpin;\r\n       for(i=0;i<lands.length;i++)\r\n       {\r\n           Land memory l =lands[i];\r\n           if(l.pincode==pincode)\r\n           {\r\n            Slandid=Strings.toString(l.landid);\r\n            totalpin=string.concat(totalpin,\",\",Slandid);\r\n           }          \r\n       }\r\n       return(totalpin);\r\n   }\r\n  \r\n  //get owner name\r\n      function getOwner(uint landid) public view returns(string memory) {\r\n       uint i;\r\n       for(i=0;i<lands.length;i++)\r\n       {\r\n           Land memory l =lands[i];\r\n           if(l.landid==landid)\r\n           {\r\n            return(l.ownername);\r\n           }\r\n       }\r\n       return(\"Not Found\");\r\n   }\r\n\r\n//get land type\r\n       function getLandtype(uint landid) public view returns(string memory) {\r\n       uint i;\r\n       for(i=0;i<lands.length;i++)\r\n       {\r\n           Land memory l=lands[i];\r\n           if(l.landid==landid)\r\n           {\r\n            return(l.landtype);\r\n           }\r\n       }\r\n       return(\"Not Found\");\r\n   }\r\n\r\n\r\n       function getGeolocation(uint landid)  public view returns(string memory){\r\n       uint i;\r\n       for(i=0;i<lands.length;i++)\r\n       {\r\n           Land memory l =lands[i];\r\n\r\n           if(l.landid==landid)\r\n           {\r\n            return(l.geolocation);\r\n           }\r\n       }\r\n       return(\"Not Found\");\r\n   }\r\n       \r\n       \r\n       function getAmount(uint landid) public view returns(string memory){\r\n       uint i;\r\n       for(i=0;i<lands.length;i++)\r\n       {\r\n           Land memory l=lands[i];\r\n\r\n           if(l.landid==landid)\r\n           {\r\n            return(l.amount);\r\n           }\r\n       }\r\n     return(\"Not Found\");\r\n   }\r\n\r\n\r\n       function getRegdate(uint landid) public view returns(string memory){\r\n       uint i;\r\n       for(i=0;i<lands.length;i++)\r\n       {\r\n           Land memory l=lands[i];\r\n\r\n           if(l.landid==landid)\r\n           {\r\n            return(l.regdate);\r\n           }\r\n       }\r\n     return(\"Not Found\");\r\n   }\r\n}\r\n\r\n// land id override is not added yet\r\n\r\n\r\n",
  "sourcePath": "D:\\Collage\\SIH 2022\\code\\9 multi-blockchain supprot\\Blockchain\\Public Blockchain\\contracts\\Public.sol",
  "compiler": {
    "name": "solc",
    "version": "0.8.16+commit.07a7930e.Emscripten.clang"
  },
  "schemaVersion": "3.4.7",
  "updatedAt": "2022-08-19T09:57:14.828Z",
  "devdoc": {
    "kind": "dev",
    "methods": {},
    "version": 1
  },
  "userdoc": {
    "kind": "user",
    "methods": {},
    "version": 1
  }
}