{
  "contractName": "PublicLandReg",
  "abi": [
    {
      "inputs": [],
      "name": "checkAdmin",
      "outputs": [
        {
          "internalType": "string",
          "name": "",
          "type": "string"
        }
      ],
      "stateMutability": "view",
      "type": "function",
      "constant": true
    },
    {
      "inputs": [
        {
          "internalType": "uint256",
          "name": "landid",
          "type": "uint256"
        },
        {
          "internalType": "string",
          "name": "ownername",
          "type": "string"
        },
        {
          "internalType": "string",
          "name": "landtype",
          "type": "string"
        },
        {
          "internalType": "string",
          "name": "geolocation",
          "type": "string"
        },
        {
          "internalType": "string",
          "name": "amount",
          "type": "string"
        },
        {
          "internalType": "string",
          "name": "regdate",
          "type": "string"
        },
        {
          "internalType": "uint256",
          "name": "pincode",
          "type": "uint256"
        }
      ],
      "name": "addLand",
      "outputs": [],
      "stateMutability": "nonpayable",
      "type": "function"
    },
    {
      "inputs": [
        {
          "internalType": "uint256",
          "name": "pincode",
          "type": "uint256"
        }
      ],
      "name": "getPincodelandids",
      "outputs": [
        {
          "internalType": "string",
          "name": "",
          "type": "string"
        }
      ],
      "stateMutability": "view",
      "type": "function",
      "constant": true
    },
    {
      "inputs": [
        {
          "internalType": "uint256",
          "name": "landid",
          "type": "uint256"
        }
      ],
      "name": "getOwner",
      "outputs": [
        {
          "internalType": "string",
          "name": "",
          "type": "string"
        }
      ],
      "stateMutability": "view",
      "type": "function",
      "constant": true
    },
    {
      "inputs": [
        {
          "internalType": "uint256",
          "name": "landid",
          "type": "uint256"
        }
      ],
      "name": "getLandtype",
      "outputs": [
        {
          "internalType": "string",
          "name": "",
          "type": "string"
        }
      ],
      "stateMutability": "view",
      "type": "function",
      "constant": true
    },
    {
      "inputs": [
        {
          "internalType": "uint256",
          "name": "landid",
          "type": "uint256"
        }
      ],
      "name": "getGeolocation",
      "outputs": [
        {
          "internalType": "string",
          "name": "",
          "type": "string"
        }
      ],
      "stateMutability": "view",
      "type": "function",
      "constant": true
    },
    {
      "inputs": [
        {
          "internalType": "uint256",
          "name": "landid",
          "type": "uint256"
        }
      ],
      "name": "getAmount",
      "outputs": [
        {
          "internalType": "string",
          "name": "",
          "type": "string"
        }
      ],
      "stateMutability": "view",
      "type": "function",
      "constant": true
    },
    {
      "inputs": [
        {
          "internalType": "uint256",
          "name": "landid",
          "type": "uint256"
        }
      ],
      "name": "getRegdate",
      "outputs": [
        {
          "internalType": "string",
          "name": "",
          "type": "string"
        }
      ],
      "stateMutability": "view",
      "type": "function",
      "constant": true
    },
    {
      "inputs": [
        {
          "internalType": "uint256",
          "name": "landid",
          "type": "uint256"
        }
      ],
      "name": "TrackLand",
      "outputs": [
        {
          "internalType": "string",
          "name": "",
          "type": "string"
        }
      ],
      "stateMutability": "view",
      "type": "function",
      "constant": true
    }
  ],
  "bytecode": "0x6080604052604051806060016040528073ab8483f64d9c6d1ecf9b849ae677dd3315835cb273ffffffffffffffffffffffffffffffffffffffff1673ffffffffffffffffffffffffffffffffffffffff168152602001734b20993bc481177ec7e8f571cecae8a9e22c02db73ffffffffffffffffffffffffffffffffffffffff1673ffffffffffffffffffffffffffffffffffffffff1681526020017378731d3ca6b7e34ac0f824c42a7cc18a495cabab73ffffffffffffffffffffffffffffffffffffffff1673ffffffffffffffffffffffffffffffffffffffff168152506000906003620000f192919062000106565b50348015620000ff57600080fd5b50620001b4565b82805482825590600052602060002090810192821562000182579160200282015b82811115620001815782518260006101000a81548173ffffffffffffffffffffffffffffffffffffffff021916908373ffffffffffffffffffffffffffffffffffffffff1602179055509160200191906001019062000127565b5b50905062000191919062000195565b5090565b5b80821115620001b057600081600090555060010162000196565b5090565b61270280620001c46000396000f3fe608060405234801561001057600080fd5b50600436106100935760003560e01c80639980ec86116100665780639980ec8614610158578063ab15022614610188578063c41a360a146101a6578063c7c8f3b0146101d6578063fdde6e4a146101f257610093565b8063201cc24814610098578063249fd2e1146100c8578063567d0324146100f8578063773b63d514610128575b600080fd5b6100b260048036038101906100ad9190611e1f565b610222565b6040516100bf9190611edc565b60405180910390f35b6100e260048036038101906100dd9190611e1f565b61058a565b6040516100ef9190611edc565b60405180910390f35b610112600480360381019061010d9190611e1f565b6108f2565b60405161011f9190611edc565b60405180910390f35b610142600480360381019061013d9190611e1f565b610c5a565b60405161014f9190611edc565b60405180910390f35b610172600480360381019061016d9190611e1f565b61100d565b60405161017f9190611edc565b60405180910390f35b610190611375565b60405161019d9190611edc565b60405180910390f35b6101c060048036038101906101bb9190611e1f565b611486565b6040516101cd9190611edc565b60405180910390f35b6101f060048036038101906101eb9190612033565b6117ee565b005b61020c60048036038101906102079190611e1f565b6118df565b6040516102199190611edc565b60405180910390f35b606060006060600091505b600180549050821015610580576000600183815481106102505761024f612161565b5b90600052602060002090600702016040518060e001604052908160008201548152602001600182018054610283906121bf565b80601f01602080910402602001604051908101604052809291908181526020018280546102af906121bf565b80156102fc5780601f106102d1576101008083540402835291602001916102fc565b820191906000526020600020905b8154815290600101906020018083116102df57829003601f168201915b50505050508152602001600282018054610315906121bf565b80601f0160208091040260200160405190810160405280929190818152602001828054610341906121bf565b801561038e5780601f106103635761010080835404028352916020019161038e565b820191906000526020600020905b81548152906001019060200180831161037157829003601f168201915b505050505081526020016003820180546103a7906121bf565b80601f01602080910402602001604051908101604052809291908181526020018280546103d3906121bf565b80156104205780601f106103f557610100808354040283529160200191610420565b820191906000526020600020905b81548152906001019060200180831161040357829003601f168201915b50505050508152602001600482018054610439906121bf565b80601f0160208091040260200160405190810160405280929190818152602001828054610465906121bf565b80156104b25780601f10610487576101008083540402835291602001916104b2565b820191906000526020600020905b81548152906001019060200180831161049557829003601f168201915b505050505081526020016005820180546104cb906121bf565b80601f01602080910402602001604051908101604052809291908181526020018280546104f7906121bf565b80156105445780601f1061051957610100808354040283529160200191610544565b820191906000526020600020905b81548152906001019060200180831161052757829003601f168201915b5050505050815260200160068201548152505090508481600001510361056c57806040015191505b5081806105789061221f565b92505061022d565b8092505050919050565b606060006060600091505b6001805490508210156108e8576000600183815481106105b8576105b7612161565b5b90600052602060002090600702016040518060e0016040529081600082015481526020016001820180546105eb906121bf565b80601f0160208091040260200160405190810160405280929190818152602001828054610617906121bf565b80156106645780601f1061063957610100808354040283529160200191610664565b820191906000526020600020905b81548152906001019060200180831161064757829003601f168201915b5050505050815260200160028201805461067d906121bf565b80601f01602080910402602001604051908101604052809291908181526020018280546106a9906121bf565b80156106f65780601f106106cb576101008083540402835291602001916106f6565b820191906000526020600020905b8154815290600101906020018083116106d957829003601f168201915b5050505050815260200160038201805461070f906121bf565b80601f016020809104026020016040519081016040528092919081815260200182805461073b906121bf565b80156107885780601f1061075d57610100808354040283529160200191610788565b820191906000526020600020905b81548152906001019060200180831161076b57829003601f168201915b505050505081526020016004820180546107a1906121bf565b80601f01602080910402602001604051908101604052809291908181526020018280546107cd906121bf565b801561081a5780601f106107ef5761010080835404028352916020019161081a565b820191906000526020600020905b8154815290600101906020018083116107fd57829003601f168201915b50505050508152602001600582018054610833906121bf565b80601f016020809104026020016040519081016040528092919081815260200182805461085f906121bf565b80156108ac5780601f10610881576101008083540402835291602001916108ac565b820191906000526020600020905b81548152906001019060200180831161088f57829003601f168201915b505050505081526020016006820154815250509050848160000151036108d457806060015191505b5081806108e09061221f565b925050610595565b8092505050919050565b606060006060600091505b600180549050821015610c50576000600183815481106109205761091f612161565b5b90600052602060002090600702016040518060e001604052908160008201548152602001600182018054610953906121bf565b80601f016020809104026020016040519081016040528092919081815260200182805461097f906121bf565b80156109cc5780601f106109a1576101008083540402835291602001916109cc565b820191906000526020600020905b8154815290600101906020018083116109af57829003601f168201915b505050505081526020016002820180546109e5906121bf565b80601f0160208091040260200160405190810160405280929190818152602001828054610a11906121bf565b8015610a5e5780601f10610a3357610100808354040283529160200191610a5e565b820191906000526020600020905b815481529060010190602001808311610a4157829003601f168201915b50505050508152602001600382018054610a77906121bf565b80601f0160208091040260200160405190810160405280929190818152602001828054610aa3906121bf565b8015610af05780601f10610ac557610100808354040283529160200191610af0565b820191906000526020600020905b815481529060010190602001808311610ad357829003601f168201915b50505050508152602001600482018054610b09906121bf565b80601f0160208091040260200160405190810160405280929190818152602001828054610b35906121bf565b8015610b825780601f10610b5757610100808354040283529160200191610b82565b820191906000526020600020905b815481529060010190602001808311610b6557829003601f168201915b50505050508152602001600582018054610b9b906121bf565b80601f0160208091040260200160405190810160405280929190818152602001828054610bc7906121bf565b8015610c145780601f10610be957610100808354040283529160200191610c14565b820191906000526020600020905b815481529060010190602001808311610bf757829003601f168201915b50505050508152602001600682015481525050905084816000015103610c3c578060a0015191505b508180610c489061221f565b9250506108fd565b8092505050919050565b60606000606080600092505b60018054905083101561100257600060018481548110610c8957610c88612161565b5b90600052602060002090600702016040518060e001604052908160008201548152602001600182018054610cbc906121bf565b80601f0160208091040260200160405190810160405280929190818152602001828054610ce8906121bf565b8015610d355780601f10610d0a57610100808354040283529160200191610d35565b820191906000526020600020905b815481529060010190602001808311610d1857829003601f168201915b50505050508152602001600282018054610d4e906121bf565b80601f0160208091040260200160405190810160405280929190818152602001828054610d7a906121bf565b8015610dc75780601f10610d9c57610100808354040283529160200191610dc7565b820191906000526020600020905b815481529060010190602001808311610daa57829003601f168201915b50505050508152602001600382018054610de0906121bf565b80601f0160208091040260200160405190810160405280929190818152602001828054610e0c906121bf565b8015610e595780601f10610e2e57610100808354040283529160200191610e59565b820191906000526020600020905b815481529060010190602001808311610e3c57829003601f168201915b50505050508152602001600482018054610e72906121bf565b80601f0160208091040260200160405190810160405280929190818152602001828054610e9e906121bf565b8015610eeb5780601f10610ec057610100808354040283529160200191610eeb565b820191906000526020600020905b815481529060010190602001808311610ece57829003601f168201915b50505050508152602001600582018054610f04906121bf565b80601f0160208091040260200160405190810160405280929190818152602001828054610f30906121bf565b8015610f7d5780601f10610f5257610100808354040283529160200191610f7d565b820191906000526020600020905b815481529060010190602001808311610f6057829003601f168201915b50505050508152602001600682015481525050905085816000015103610fee5780602001518160a00151604051602001610fb89291906122c9565b60405160208183030381529060405291508282604051602001610fdc929190612322565b60405160208183030381529060405292505b508280610ffa9061221f565b935050610c66565b819350505050919050565b606060006060600091505b60018054905082101561136b5760006001838154811061103b5761103a612161565b5b90600052602060002090600702016040518060e00160405290816000820154815260200160018201805461106e906121bf565b80601f016020809104026020016040519081016040528092919081815260200182805461109a906121bf565b80156110e75780601f106110bc576101008083540402835291602001916110e7565b820191906000526020600020905b8154815290600101906020018083116110ca57829003601f168201915b50505050508152602001600282018054611100906121bf565b80601f016020809104026020016040519081016040528092919081815260200182805461112c906121bf565b80156111795780601f1061114e57610100808354040283529160200191611179565b820191906000526020600020905b81548152906001019060200180831161115c57829003601f168201915b50505050508152602001600382018054611192906121bf565b80601f01602080910402602001604051908101604052809291908181526020018280546111be906121bf565b801561120b5780601f106111e05761010080835404028352916020019161120b565b820191906000526020600020905b8154815290600101906020018083116111ee57829003601f168201915b50505050508152602001600482018054611224906121bf565b80601f0160208091040260200160405190810160405280929190818152602001828054611250906121bf565b801561129d5780601f106112725761010080835404028352916020019161129d565b820191906000526020600020905b81548152906001019060200180831161128057829003601f168201915b505050505081526020016005820180546112b6906121bf565b80601f01602080910402602001604051908101604052809291908181526020018280546112e2906121bf565b801561132f5780601f106113045761010080835404028352916020019161132f565b820191906000526020600020905b81548152906001019060200180831161131257829003601f168201915b5050505050815260200160068201548152505090508481600001510361135757806080015191505b5081806113639061221f565b925050611018565b8092505050919050565b606060005b600080549050811015611449573373ffffffffffffffffffffffffffffffffffffffff16600082815481106113b2576113b1612161565b5b9060005260206000200160009054906101000a900473ffffffffffffffffffffffffffffffffffffffff1673ffffffffffffffffffffffffffffffffffffffff1603611436576040518060400160405280600581526020017f41646d696e000000000000000000000000000000000000000000000000000000815250915050611483565b80806114419061221f565b91505061137a565b506040518060400160405280600981526020017f4e6f742041646d696e000000000000000000000000000000000000000000000081525090505b90565b606060006060600091505b6001805490508210156117e4576000600183815481106114b4576114b3612161565b5b90600052602060002090600702016040518060e0016040529081600082015481526020016001820180546114e7906121bf565b80601f0160208091040260200160405190810160405280929190818152602001828054611513906121bf565b80156115605780601f1061153557610100808354040283529160200191611560565b820191906000526020600020905b81548152906001019060200180831161154357829003601f168201915b50505050508152602001600282018054611579906121bf565b80601f01602080910402602001604051908101604052809291908181526020018280546115a5906121bf565b80156115f25780601f106115c7576101008083540402835291602001916115f2565b820191906000526020600020905b8154815290600101906020018083116115d557829003601f168201915b5050505050815260200160038201805461160b906121bf565b80601f0160208091040260200160405190810160405280929190818152602001828054611637906121bf565b80156116845780601f1061165957610100808354040283529160200191611684565b820191906000526020600020905b81548152906001019060200180831161166757829003601f168201915b5050505050815260200160048201805461169d906121bf565b80601f01602080910402602001604051908101604052809291908181526020018280546116c9906121bf565b80156117165780601f106116eb57610100808354040283529160200191611716565b820191906000526020600020905b8154815290600101906020018083116116f957829003601f168201915b5050505050815260200160058201805461172f906121bf565b80601f016020809104026020016040519081016040528092919081815260200182805461175b906121bf565b80156117a85780601f1061177d576101008083540402835291602001916117a8565b820191906000526020600020905b81548152906001019060200180831161178b57829003601f168201915b505050505081526020016006820154815250509050848160000151036117d057806020015191505b5081806117dc9061221f565b925050611491565b8092505050919050565b60006040518060e0016040528089815260200188815260200187815260200186815260200185815260200184815260200183815250905060018190806001815401808255809150506001900390600052602060002090600702016000909190919091506000820151816000015560208201518160010190816118709190612501565b5060408201518160020190816118869190612501565b50606082015181600301908161189c9190612501565b5060808201518160040190816118b29190612501565b5060a08201518160050190816118c89190612501565b5060c0820151816006015550505050505050505050565b60606000606080600092505b600180549050831015611c6a5760006001848154811061190e5761190d612161565b5b90600052602060002090600702016040518060e001604052908160008201548152602001600182018054611941906121bf565b80601f016020809104026020016040519081016040528092919081815260200182805461196d906121bf565b80156119ba5780601f1061198f576101008083540402835291602001916119ba565b820191906000526020600020905b81548152906001019060200180831161199d57829003601f168201915b505050505081526020016002820180546119d3906121bf565b80601f01602080910402602001604051908101604052809291908181526020018280546119ff906121bf565b8015611a4c5780601f10611a2157610100808354040283529160200191611a4c565b820191906000526020600020905b815481529060010190602001808311611a2f57829003601f168201915b50505050508152602001600382018054611a65906121bf565b80601f0160208091040260200160405190810160405280929190818152602001828054611a91906121bf565b8015611ade5780601f10611ab357610100808354040283529160200191611ade565b820191906000526020600020905b815481529060010190602001808311611ac157829003601f168201915b50505050508152602001600482018054611af7906121bf565b80601f0160208091040260200160405190810160405280929190818152602001828054611b23906121bf565b8015611b705780601f10611b4557610100808354040283529160200191611b70565b820191906000526020600020905b815481529060010190602001808311611b5357829003601f168201915b50505050508152602001600582018054611b89906121bf565b80601f0160208091040260200160405190810160405280929190818152602001828054611bb5906121bf565b8015611c025780601f10611bd757610100808354040283529160200191611c02565b820191906000526020600020905b815481529060010190602001808311611be557829003601f168201915b505050505081526020016006820154815250509050858160c0015103611c5657611c2f8160000151611c75565b92508183604051602001611c44929190612322565b60405160208183030381529060405291505b508280611c629061221f565b9350506118eb565b809350505050919050565b606060008203611cbc576040518060400160405280600181526020017f30000000000000000000000000000000000000000000000000000000000000008152509050611dd0565b600082905060005b60008214611cee578080611cd79061221f565b915050600a82611ce79190612602565b9150611cc4565b60008167ffffffffffffffff811115611d0a57611d09611f08565b5b6040519080825280601f01601f191660200182016040528015611d3c5781602001600182028036833780820191505090505b5090505b60008514611dc957600182611d559190612633565b9150600a85611d649190612667565b6030611d709190612698565b60f81b818381518110611d8657611d85612161565b5b60200101907effffffffffffffffffffffffffffffffffffffffffffffffffffffffffffff1916908160001a905350600a85611dc29190612602565b9450611d40565b8093505050505b919050565b6000604051905090565b600080fd5b600080fd5b6000819050919050565b611dfc81611de9565b8114611e0757600080fd5b50565b600081359050611e1981611df3565b92915050565b600060208284031215611e3557611e34611ddf565b5b6000611e4384828501611e0a565b91505092915050565b600081519050919050565b600082825260208201905092915050565b60005b83811015611e86578082015181840152602081019050611e6b565b60008484015250505050565b6000601f19601f8301169050919050565b6000611eae82611e4c565b611eb88185611e57565b9350611ec8818560208601611e68565b611ed181611e92565b840191505092915050565b60006020820190508181036000830152611ef68184611ea3565b905092915050565b600080fd5b600080fd5b7f4e487b7100000000000000000000000000000000000000000000000000000000600052604160045260246000fd5b611f4082611e92565b810181811067ffffffffffffffff82111715611f5f57611f5e611f08565b5b80604052505050565b6000611f72611dd5565b9050611f7e8282611f37565b919050565b600067ffffffffffffffff821115611f9e57611f9d611f08565b5b611fa782611e92565b9050602081019050919050565b82818337600083830152505050565b6000611fd6611fd184611f83565b611f68565b905082815260208101848484011115611ff257611ff1611f03565b5b611ffd848285611fb4565b509392505050565b600082601f83011261201a57612019611efe565b5b813561202a848260208601611fc3565b91505092915050565b600080600080600080600060e0888a03121561205257612051611ddf565b5b60006120608a828b01611e0a565b975050602088013567ffffffffffffffff81111561208157612080611de4565b5b61208d8a828b01612005565b965050604088013567ffffffffffffffff8111156120ae576120ad611de4565b5b6120ba8a828b01612005565b955050606088013567ffffffffffffffff8111156120db576120da611de4565b5b6120e78a828b01612005565b945050608088013567ffffffffffffffff81111561210857612107611de4565b5b6121148a828b01612005565b93505060a088013567ffffffffffffffff81111561213557612134611de4565b5b6121418a828b01612005565b92505060c06121528a828b01611e0a565b91505092959891949750929550565b7f4e487b7100000000000000000000000000000000000000000000000000000000600052603260045260246000fd5b7f4e487b7100000000000000000000000000000000000000000000000000000000600052602260045260246000fd5b600060028204905060018216806121d757607f821691505b6020821081036121ea576121e9612190565b5b50919050565b7f4e487b7100000000000000000000000000000000000000000000000000000000600052601160045260246000fd5b600061222a82611de9565b91507fffffffffffffffffffffffffffffffffffffffffffffffffffffffffffffffff820361225c5761225b6121f0565b5b600182019050919050565b600081905092915050565b600061227d82611e4c565b6122878185612267565b9350612297818560208601611e68565b80840191505092915050565b7f3a00000000000000000000000000000000000000000000000000000000000000815250565b60006122d58285612272565b91506122e0826122a3565b6001820191506122f08284612272565b91508190509392505050565b7f2c00000000000000000000000000000000000000000000000000000000000000815250565b600061232e8285612272565b9150612339826122fc565b6001820191506123498284612272565b91508190509392505050565b60008190508160005260206000209050919050565b60006020601f8301049050919050565b600082821b905092915050565b6000600883026123b77fffffffffffffffffffffffffffffffffffffffffffffffffffffffffffffffff8261237a565b6123c1868361237a565b95508019841693508086168417925050509392505050565b6000819050919050565b60006123fe6123f96123f484611de9565b6123d9565b611de9565b9050919050565b6000819050919050565b612418836123e3565b61242c61242482612405565b848454612387565b825550505050565b600090565b612441612434565b61244c81848461240f565b505050565b5b8181101561247057612465600082612439565b600181019050612452565b5050565b601f8211156124b55761248681612355565b61248f8461236a565b8101602085101561249e578190505b6124b26124aa8561236a565b830182612451565b50505b505050565b600082821c905092915050565b60006124d8600019846008026124ba565b1980831691505092915050565b60006124f183836124c7565b9150826002028217905092915050565b61250a82611e4c565b67ffffffffffffffff81111561252357612522611f08565b5b61252d82546121bf565b612538828285612474565b600060209050601f83116001811461256b5760008415612559578287015190505b61256385826124e5565b8655506125cb565b601f19841661257986612355565b60005b828110156125a15784890151825560018201915060208501945060208101905061257c565b868310156125be57848901516125ba601f8916826124c7565b8355505b6001600288020188555050505b505050505050565b7f4e487b7100000000000000000000000000000000000000000000000000000000600052601260045260246000fd5b600061260d82611de9565b915061261883611de9565b925082612628576126276125d3565b5b828204905092915050565b600061263e82611de9565b915061264983611de9565b9250828203905081811115612661576126606121f0565b5b92915050565b600061267282611de9565b915061267d83611de9565b92508261268d5761268c6125d3565b5b828206905092915050565b60006126a382611de9565b91506126ae83611de9565b92508282019050808211156126c6576126c56121f0565b5b9291505056fea2646970667358221220e9b64d758c5deacce861b39b791b4eda22b17bcfae0c3c31942bfce342c5551c64736f6c63430008100033",
  "immutableReferences": {},
  "source": "// Solidity program \r\n\r\n// SPDX-License-Identifier: MIT\r\n\r\npragma solidity ^0.8.12;\r\n \r\n import \"@openzeppelin/contracts/utils/Strings.sol\";\r\n \r\n// Creating a Smart Contract\r\ncontract PublicLandReg{\r\n  \r\n\r\n      //admin addreses\r\n    address[] listuser =[0xAb8483F64d9C6d1EcF9b849Ae677dD3315835cb2,\r\n                        0x4B20993Bc481177ec7E8f571ceCaE8A9e22C02db,\r\n                        0x78731D3Ca6b7E34aC0F824c42a7cC18A495cabaB];\r\n\r\n   // Structure of Land data\r\n   struct Land{     \r\n       // State variables\r\n       uint landid;\r\n       string ownername; \r\n       string landtype;\r\n       string geolocation;\r\n       string amount;\r\n       string regdate;\r\n       uint pincode;     \r\n   }\r\n   \r\n   //Dynamic array \r\n   Land []lands;\r\n\r\n\r\n\r\n    function checkAdmin() public view returns(string memory){\r\n         for(uint index = 0; index < listuser.length; index++){\r\n            if(listuser[index] == (msg.sender)) {\r\n                return(\"Admin\");\r\n            }\r\n        }\r\n        return(\"Not Admin\");\r\n    }\r\n\r\n  \r\n   // Function to add \r\n   // Land details\r\n   function addLand(uint landid, string memory ownername, string memory landtype, string memory geolocation, string memory amount, string memory regdate, uint  pincode) public {\r\n       Land memory l=Land(landid,ownername,landtype,geolocation,amount,regdate,pincode);\r\n       lands.push(l);\r\n   }\r\n\r\n    //Function get land ids from pincode\r\n   function getPincodelandids(uint pincode) public view returns(string memory){\r\n       uint i;\r\n       string memory Slandid;\r\n       string memory totalpin;\r\n       for(i=0;i<lands.length;i++)\r\n       {\r\n           Land memory l =lands[i];\r\n           if(l.pincode==pincode)\r\n           {\r\n            Slandid=Strings.toString(l.landid);\r\n            totalpin=string.concat(totalpin,\",\",Slandid);\r\n           }          \r\n       }\r\n       return(totalpin);\r\n   }\r\n  \r\n  //get owner name\r\n      function getOwner(uint landid) public view returns(string memory) {\r\n       uint i;\r\n       string memory data;\r\n       for(i=0;i<lands.length;i++)\r\n       {\r\n           Land memory l =lands[i];\r\n           if(l.landid==landid)\r\n           {\r\n            data=l.ownername;\r\n           }\r\n       }\r\n       return(data);\r\n   }\r\n\r\n//get land type\r\n       function getLandtype(uint landid) public view returns(string memory) {\r\n       uint i;\r\n       string memory data;\r\n       for(i=0;i<lands.length;i++)\r\n       {\r\n           Land memory l=lands[i];\r\n           if(l.landid==landid)\r\n           {\r\n            data=l.landtype;\r\n           }\r\n       }\r\n       return(data);\r\n   }\r\n\r\n\r\n       function getGeolocation(uint landid)  public view returns(string memory){\r\n       uint i;\r\n       string memory data;\r\n       for(i=0;i<lands.length;i++)\r\n       {\r\n           Land memory l =lands[i];\r\n\r\n           if(l.landid==landid)\r\n           {\r\n            data=l.geolocation;\r\n           }\r\n       }\r\n       return(data);\r\n   }\r\n       \r\n       \r\n       function getAmount(uint landid) public view returns(string memory){\r\n       uint i;\r\n       string memory data;\r\n       for(i=0;i<lands.length;i++)\r\n       {\r\n           Land memory l=lands[i];\r\n\r\n           if(l.landid==landid)\r\n           {\r\n            data=l.amount;\r\n           }\r\n       }\r\n     return(data);\r\n   }\r\n\r\n\r\n       function getRegdate(uint landid) public view returns(string memory){\r\n       uint i;\r\n       string memory data;\r\n       for(i=0;i<lands.length;i++)\r\n       {\r\n           Land memory l=lands[i];\r\n\r\n           if(l.landid==landid)\r\n           {\r\n            data=l.regdate;\r\n           }\r\n       }\r\n     return(data);\r\n   }\r\n\r\n\r\n    //function to track history of land\r\n    function TrackLand(uint landid) public view returns(string memory) {\r\n     uint i;\r\n     string memory result;\r\n     string memory data;\r\n     for (i=0;i<lands.length;i++)\r\n     {\r\n       Land memory l= lands[i];\r\n       if(l.landid==landid)\r\n       {\r\n         data=string.concat(l.ownername,\":\",l.regdate);\r\n         result=string.concat(result,\",\",data);\r\n       }\r\n     }\r\n     return(result);\r\n   }\r\n}\r\n",
  "sourcePath": "D:\\All Downlaods\\11 complete (maps added)\\11 complete (maps added)\\Blockchain\\Public Blockchain\\contracts\\PublicLandReg.sol",
  "compiler": {
    "name": "solc",
    "version": "0.8.16+commit.07a7930e.Emscripten.clang"
  },
  "schemaVersion": "3.4.10",
  "updatedAt": "2022-11-12T14:07:10.791Z",
  "networkType": "ethereum",
  "devdoc": {
    "kind": "dev",
    "methods": {},
    "version": 1
  },
  "userdoc": {
    "kind": "user",
    "methods": {},
    "version": 1
  }
}